:100000000C942A000C9447000C9447000C94470071
:100010000C9447000C9447000C9447000C94470044
:100020000C9447000C9447000C9447000C94470034
:100030000C9447000C9447000C9447000C94470024
:100040000C9447000C9447000C9447000C94470014
:100050000C94470011241FBECFE5D8E0DEBFCDBF12
:1000600010E0A0E6B0E0E2E4F3E002C005900D92FB
:10007000A236B107D9F720E0A2E6B0E001C01D9298
:10008000A336B207E1F70E9480010C949F010C9403
:10009000000011B881E480B90895EF92FF921F9398
:1000A000CF93DF93FA016115710541E08407910553
:1000B00038F001974091600048604093600005C0AF
:1000C00040916000477F4093600050916000A72FEF
:1000D000D8EC14EAE12E44E8B52FB16003C0D1504A
:1000E00009F4A1C0E6BE06B607FEFDCFC1B1C87FC8
:1000F000C0936200C03129F0C833A1F3C83009F0C1
:1001000095C053B946BF06B607FEFDCFC1B1C87F43
:10011000C0936200C03219F3C83321F3C83109F02B
:100120006BC0A3B946BF06B607FEFDCFC1B1C87FFD
:10013000C0936200C033B1F2C833A1F2C83209F0F3
:100140005EC063B946BF06B607FEFDCFC1B1C87F2A
:10015000C0936200C03309F455C0C83319F2C832E5
:1001600019F08FEF9FEF5CC016BF06B607FEFDCFFC
:10017000F1B0CF2DC87FC0936200C03131F0C833D9
:1001800009F4B0CFC83009F040C0B3B946BF06B6D5
:1001900007FEFDCFF1B0CF2DC87FC0936200C03401
:1001A00041F0C834A9F1C83309F49CCF8FEF9FEF19
:1001B00037C01E161F067CF5422F532F80E090E0BB
:1001C00034EC64E8DA01E130F10509F4362F36BF8A
:1001D00006B607FEFDCF21B1287F209362002035AF
:1001E00019F0283531F11AC023B12C934F5F5F4FBE
:1001F0000196319739F714C08FEF9FEF11C08FEF41
:100200009FEF0EC080E090E00BC08FEF9FEF08C023
:1002100080E090E005C080E090E002C08FEF9FEFAB
:1002200024E926BF0AC08FEF9FEF07C08FEF9FEF33
:1002300004C023B12C930196F3CFDF91CF911F918E
:10024000FF90EF900895AF92BF92CF92DF92EF921E
:10025000FF920F931F93CF93DF936B017C01EA0111
:100260008901611571058140910518F5CA01550F85
:10027000AA0BBB0B8C0D9D1DAE1DBF1D0197A14090
:10028000B105B8F0AA24BB24AC18BD089801A5019B
:10029000C701B6010E944D0098012A0D3B1DAE0119
:1002A0004C0D5D1D60E070E081E090E00E944D002B
:1002B00006C09801AE01C701B6010E944D00DF9152
:1002C000CF911F910F91FF90EF90DF90CF90BF9053
:1002D000AF90089510BC8FE589B988E18AB98EE89E
:1002E00080BD08955D9BFECF8CB90895CF93C82F34
:1002F000892F0E9472018C2F0E947201CF91089564
:10030000CF93DF9300D0CDB7DEB70E9449000E94A3
:100310006A0119821A828EB581608EBD609160007B
:1003200070E080E090E09E012F5F3F4F41E050E0A1
:100330000E9423018CB59DB50E947601FFCFF894F1
:02034000FFCFED
:02034200A60013
:00000001FF
