:100000000C942A000C9434000C9434000C943400AA
:100010000C9434000C9434000C9434000C94340090
:100020000C9434000C9434000C9434000C94340080
:100030000C9434000C9434000C9434000C94340070
:100040000C9434000C9434000C9434000C94340060
:100050000C94340011241FBECFE5D8E0DEBFCDBF25
:100060000E94C5000C9418020C940000E7E3F0E035
:100070008081806B8083E8E3F0E080818069808309
:10008000EDE2F0E08081886580830895282FE8E321
:10009000F0E080818F7E80839FB9EEE2F0E0808186
:1000A0008823ECF72FB9EEE2F0E080818823ECF7AB
:1000B000E8E3F0E08081806180830895EF92FF9211
:1000C0000F931F93CF93DF93EA0120E030E040E8E5
:1000D0005DE40E94B50120E23CEB4EEB5BE40E9444
:1000E000D0000E9438019B01AC012070307C5F7011
:1000F000012E1EE056954795379527951A95D1F70D
:10010000102D7F7389011064EE24FF246894F6F8A3
:10011000E62AF72AC130D105A1F0C230D10501F19C
:10012000CD2B61F580E091E20E944600C8010E945B
:100130004600C7010E94460080E090E20E9446000F
:100140001DC088E691E20E944600C8010E94460058
:10015000C7010E94460088E690E20E9446000EC059
:1001600082E091E20E944600C8010E944600C70159
:100170000E94460082E090E20E944600DF91CF910B
:100180001F910F91FF90EF9008950E94360060E05C
:1001900070E08AE794E440E051E20E945E00FFCF05
:1001A0000CD0A9C0A1D040F098D030F021F45F3F2E
:1001B00019F08AC05111D3C08DC0AED098F39923E5
:1001C000C9F35523B1F3951B550BBB27AA2762171B
:1001D0007307840738F09F5F5F4F220F331F441F60
:1001E000AA1FA9F333D00E2E3AF0E0E830D0915098
:1001F0005040E695001CCAF729D0FE2F27D0660F85
:10020000771F881FBB1F261737074807AB07B0E8C3
:1002100009F0BB0B802DBF01FF2793585F4F2AF0D9
:100220009E3F510568F050C09AC05F3FECF3983E86
:10023000DCF3869577956795B795F7959F5FC9F736
:10024000880F911D9695879597F90895E1E0660FBF
:10025000771F881FBB1F621773078407BA0720F038
:10026000621B730B840BBA0BEE1F88F7E0950895A1
:100270005BD088F09F5790F0B92F9927B751A0F025
:10028000D1F0660F771F881F991F1AF0BA95C9F72A
:1002900012C0B13081F062D0B1E008955FC0672F25
:1002A000782F8827B85F39F0B93FCCF386957795DA
:1002B0006795B395D9F73EF49095809570956195C3
:1002C0007F4F8F4F9F4F089597F99F6780E870E0A9
:1002D00060E008959FEF80EC089500240A941616BC
:1002E000170618060906089500240A941216130624
:1002F000140605060895092E0394000C11F48823B2
:1003000052F0BB0F40F4BF2B11F460FF04C06F5FCD
:100310007F4F8F4F9F4F089557FD9058440F551FA3
:1003200059F05F3F71F04795880F97FB991F61F077
:100330009F3F79F087950895121613061406551FEE
:10034000F2CF4695F1DF08C0161617061806991F5A
:10035000F1CF86957105610508940895E894BB274F
:1003600066277727CB0197F908950BD0C4CFB5DF67
:1003700028F0BADF18F0952309F0A6CFABCF1124EF
:10038000EECFCADFA0F3959FD1F3950F50E0551F34
:10039000629FF001729FBB27F00DB11D639FAA27DA
:1003A000F00DB11DAA1F649F6627B00DA11D661F29
:1003B000829F2227B00DA11D621F739FB00DA11D4A
:1003C000621F839FA00D611D221F749F3327A00D04
:1003D000611D231F849F600D211D822F762F6A2FA0
:1003E00011249F5750408AF0E1F088234AF0EE0F25
:1003F000FF1FBB1F661F771F881F91505040A9F732
:100400009E3F510570F060CFAACF5F3FECF3983E5E
:10041000DCF3869577956795B795F795E7959F5F98
:10042000C1F7FE2B880F911D9695879597F9089532
:04043000F894FFCF6E
:00000001FF
