:100000000C942B000C9453000C9453000C9453004C
:100010000C9453000C9453000C9453000C94B302B2
:100020000C9453000C9453000C9453000C94530004
:100030000C9477030C9453000C9453000C945300CD
:100040000C9453000C9453000C9453000C945300E4
:100050000C945300780311241FBECFE5D8E0DEBF17
:10006000CDBF10E0A0E6B0E0EEE2F1E102C0059005
:100070000D92A636B107D9F720E0A6E6B0E001C0A0
:100080001D92AE3AB207E1F710E0CBE2D0E004C037
:100090002197FE010E948F08CA32D107C9F70E943A
:1000A0002E010C9495080C9400008130910539F0D4
:1000B0008230910531F0892B29F4D89A0895D99A84
:1000C0000895DA9A08958FB9779BFECF0895CF935C
:1000D000C82FC098892F0E9463008C2F0E94630054
:1000E000C09ACF910895CF92DF92EF92FF920F9333
:1000F0001F93CF93DF938A0120E030E040E85DE476
:100100000E94220820E23CEB4EEB5BE40E948A0650
:100110000E94FC066B017C01CC2420ECD2222FE053
:10012000F2220B2EBEE0F594E794D794C794BA95CB
:10013000D1F7B02DEB01DF7380E091E20E94670000
:10014000CE0190640E946700C60190640E9467001F
:10015000C8019F70906C0E94670080E090E20E944E
:100160006700DF91CF911F910F91FF90EF90DF908B
:10017000CF9008954F925F926F927F928F929F924D
:10018000AF92BF92CF92DF92EF92FF920F931F93A5
:10019000CF93DF9300D000D0CDB7DEB72B013C0169
:1001A00049015A016701780160E070E080E89FE34F
:1001B0000E948A0669837A838B839C8320E034E2E1
:1001C00044E759E4C701B6010E948A0629813A81B1
:1001D0004B815C810E947A079B01AC010E941E0644
:1001E00020ED3FE049E450E40E942208A50194017B
:1001F0000E9422086B017C012CE839EF42E254E4B2
:10020000C301B2010E948A069B01AC01C701B6017D
:100210000E941E0620E030E040E055E40E942208E3
:1002200020ED3FE049E450E40E948A060E94030763
:10023000CB010F900F900F900F90DF91CF911F91F6
:100240000F91FF90EF90DF90CF90BF90AF909F9075
:100250008F907F906F905F904F90089580E091E035
:100260000E9467002FEF8FE796E121508040904079
:10027000E1F700C0000040E050E060E070E88DEE83
:1002800094E40E9473002FEF8FE79DE0215080409F
:100290009040E1F700C0000040E050E060E070E016
:1002A00086E994E40E9473008FEF9FE80197F1F7CD
:1002B00000C0000040E050E060E070E88DEE94E4A3
:1002C0000E9473009FEF2FE78DE091502040804007
:1002D000E1F700C0000040E050E060E070E086E937
:1002E00094E40E94730094E12EE481E09150204058
:1002F0008040E1F7000084E19CE00197F1F700C045
:10030000000040E050E060E070E889E894E40E947A
:10031000730094E12EE481E0915020408040E1F7A9
:10032000000084E19CE00197F1F700C0000040E08C
:1003300050E060E070E889E894E40E94730094E182
:100340002EE481E0915020408040E1F7000084E1FC
:100350009CE00197F1F700C0000040E050E060E051
:1003600070E882EA94E40E94730094E12EE481E054
:10037000915020408040E1F7000084E19CE001972B
:10038000F1F700C0000040E050E060E070E882EA71
:1003900094E40E94730094E12EE481E091502040A7
:1003A0008040E1F7000084E19CE00197F1F700C094
:1003B000000040E050E060E070E882EA94E40E94CF
:1003C000730094E12EE481E0915020408040E1F7F9
:1003D000000084E19CE00197F1F700C0000040E0DC
:1003E00050E060E070E889E894E40E94730094E1D2
:1003F0002EE481E0915020408040E1F7000084E14C
:100400009CE00197F1F700C0000040E050E060E0A0
:1004100070E889E894E40E94730094E12EE481E09E
:10042000915020408040E1F7000084E19CE001977A
:10043000F1F700C0000040E050E060E070E882EAC0
:1004400094E40E94730094E12EE481E091502040F6
:100450008040E1F7000084E19CE00197F1F700C0E3
:10046000000040E050E060E070E086E994E40E9423
:10047000730094E12EE481E0915020408040E1F748
:1004800000008EE49DE00197F1F7C0E8D0E001E0C4
:1004900010E040E050E060E070E086E994E40E9403
:1004A000730091EE2AED80E0915020408040E1F70A
:1004B00088E19CE00197F1F700C040E050E060E087
:1004C00070E88BEB94E40E94730086E69EE001974F
:1004D000F1F700008FE39DE00197F1F70000109322
:1004E000A3000093A20080918A0090918B00A091BC
:1004F0008C00B0918D008093A8009093A900A093E8
:10050000AA00B093AB0078941EBC8EB589608EBDF6
:1005100089B7806189BF80916400909165009BBD1F
:100520008ABD809164009091650001979DBD8CBD4E
:100530008091A2009091A30081309540CCF3F89473
:1005400089B78F7E89BF1EBC1BBAC8010E945500A7
:10055000219709F09ECF40E050E060E070E0CB01D1
:100560000E947300FFCF1F920F920FB60F921124BB
:100570008F929F92AF92BF92EF92FF920F931F9331
:100580002F933F934F935F936F937F938F939F939B
:10059000AF93BF93EF93FF9340919E0050919F00C4
:1005A0006091A8007091A9008091AA009091AB0081
:1005B0000E94730080919E0090919F009093A100F3
:1005C0008093A0008091A8009091A900A091AA001A
:1005D000B091AB008093A4009093A500A093A600D7
:1005E000B093A7008091A2009091A3008F33914017
:1005F00089F48091860090918700A0918800B09145
:1006000089008093A8009093A900A093AA00B093BA
:10061000AB002FC08091A2009091A3008F37924031
:1006200089F48091820090918300A0918400B09120
:1006300085008093A8009093A900A093AA00B0938E
:10064000AB0017C08091A2009091A3008F3B934014
:1006500081F480918A0090918B00A0918C00B091E0
:100660008D008093A8009093A900A093AA00B09356
:10067000AB008090A4009090A500A090A600B09040
:10068000A7006091A0007091A10080E090E00E941E
:100690003207E12CF12C05E014E4A50194010E943D
:1006A000BA0090939F0080939E008091A200909149
:1006B000A30001969093A3008093A200FF91EF9175
:1006C000BF91AF919F918F917F916F915F914F916A
:1006D0003F912F911F910F91FF90EF90BF90AF909E
:1006E0009F908F900F900FBE0F901F9018951895A8
:1006F0004F925F926F927F928F929F92AF92BF9232
:10070000CF92DF92EF92FF92CF93DF93CDB7DEB718
:1007100028970FB6F894DEBF0FBECDBF809164005E
:1007200090916500809590959093AD008093AC007A
:100730006091620070916300072E000C880B990B8A
:100740000E94340769837A838B839C8360919C0029
:1007500070919D00072E000C880B990B0E943407A6
:100760006D837E838F83988760919A0070919B0040
:10077000072E000C880B990B0E9434076B017C013B
:100780002BED39E743E852E469817A818B819C81C2
:100790000E9422084B015C0128E93EE041E053E45D
:1007A0006D817E818F8198850E9422089B01AC011A
:1007B000C501B4010E941E064B015C0122E133E831
:1007C00048EC51E4C701B6010E9422089B01AC012C
:1007D000C501B4010E941E062EEC3BEF4FE75BE320
:1007E0000E94220820E030E040E851E40E941E060A
:1007F0002B013C01609396007093970080939800C2
:100800009093990025EC30EE40EE52E469817A81B4
:100810008B819C810E9422084B015C0129ED3EE402
:100820004CEB52EC6D817E818F8198850E9422086D
:100830009B01AC01C501B4010E941E064B015C0185
:100840002EEA37E442E951ECC701B6010E942208C2
:100850009B01AC01C501B4010E941E062EEC3BEFCA
:100860004FE75BE30E94220820E030E040E053E4E1
:100870000E941E064B015C016093920070939300EE
:1008800080939400909395002EEA37EC47E152EC68
:1008900069817A818B819C810E94220869837A8395
:1008A0008B839C832EEE3CEF44E952EC6D817E817C
:1008B0008F8198850E9422089B01AC0169817A8111
:1008C0008B819C810E941E0669837A838B839C8323
:1008D00025EC30EE40EE52E4C701B6010E9422083A
:1008E0009B01AC0169817A818B819C810E941E06EB
:1008F0002EEC3BEF4FE75BE30E94220820E030E064
:1009000040E053E40E941E066B017C0160938E0060
:1009100070938F00809390009093910029EC38ECB5
:1009200048E450E4C301B2010E94220820E030E80C
:100930004BEB54E40E941E0660938A0070938B0078
:1009400080938C0090938D0029EC38EC48E450E4BF
:10095000C501B4010E94220820E030E84BEB54E4CA
:100960000E941E0660938600709387008093880023
:100970009093890029EC38EC48E450E4C701B601B3
:100980000E94220820E030E84BEB54E40E941E064F
:10099000609382007093830080938400909385001D
:1009A0006091800070918100072E000C880B990BDC
:1009B0000E94340769837A838B839C8360916000F3
:1009C00070916100072E000C880B990B0E94340770
:1009D0006D837E838F83988760917E0070917F0006
:1009E000072E000C880B990B0E9434076B017C01C9
:1009F0002BED39E743E852E469817A818B819C8150
:100A00000E9422084B015C0128E93EE041E053E4EA
:100A10006D817E818F8198850E9422089B01AC01A7
:100A2000C501B4010E941E064B015C0122E133E8BE
:100A300048EC51E4C701B6010E9422089B01AC01B9
:100A4000C501B4010E941E062EEC3BEF4FE75BE3AD
:100A50000E94220820E030E040E851E40E941E0697
:100A60002B013C0160937A0070937B0080937C00A3
:100A700090937D0025EC30EE40EE52E469817A815E
:100A80008B819C810E9422084B015C0129ED3EE490
:100A90004CEB52EC6D817E818F8198850E942208FB
:100AA0009B01AC01C501B4010E941E064B015C0113
:100AB0002EEA37E442E951ECC701B6010E94220850
:100AC0009B01AC01C501B4010E941E062EEC3BEF58
:100AD0004FE75BE30E94220820E030E040E053E46F
:100AE0000E941E064B015C016093760070937700B4
:100AF00080937800909379002EEA37EC47E152EC2E
:100B000069817A818B819C810E94220869837A8322
:100B10008B839C832EEE3CEF44E952EC6D817E8109
:100B20008F8198850E9422089B01AC0169817A819E
:100B30008B819C810E941E0669837A838B839C83B0
:100B400025EC30EE40EE52E4C701B6010E942208C7
:100B50009B01AC0169817A818B819C810E941E0678
:100B60002EEC3BEF4FE75BE30E94220820E030E0F1
:100B700040E053E40E941E066B017C01609372000A
:100B800070937300809374009093750029EC38EC97
:100B900048E450E4C301B2010E94220820E030E89A
:100BA0004BEB54E40E941E0660936E0070936F003E
:100BB000809370009093710029EC38EC48E450E485
:100BC000C501B4010E94220820E030E84BEB54E458
:100BD0000E941E0660936A0070936B0080936C0005
:100BE00090936D0029EC38EC48E450E4C701B6015D
:100BF0000E94220820E030E84BEB54E40E941E06DD
:100C0000609366007093670080936800909369001A
:100C100028960FB6F894DEBF0FBECDBFDF91CF91FF
:100C2000FF90EF90DF90CF90BF90AF909F908F900C
:100C30007F906F905F904F9008955058BB27AA27E0
:100C40000E9435060C94E8070E94DA0738F00E94EB
:100C5000E10720F039F49F3F19F426F40C94D707EC
:100C60000EF4E095E7FB0C94C307E92F0E94F90707
:100C700058F3BA17620773078407950720F079F4D1
:100C8000A6F50C941B080EF4E0950B2EBA2FA02DA0
:100C90000B01B90190010C01CA01A0011124FF2729
:100CA000591B99F0593F50F4503E68F11A16F04024
:100CB000A22F232F342F4427585FF3CF4695379523
:100CC0002795A795F0405395C9F77EF41F16BA0BE8
:100CD000620B730B840BBAF09150A1F0FF0FBB1F96
:100CE000661F771F881FC2F70EC0BA0F621F731FDF
:100CF000841F48F4879577956795B795F7959E3F3C
:100D000008F0B0CF9395880F08F09927EE0F9795CC
:100D1000879508950E949E060C94E8070E94E107BB
:100D200058F00E94DA0740F029F45F3F29F00C9454
:100D3000C30751110C941C080C94D7070E94F907A3
:100D400068F39923B1F3552391F3951B550BBB27FA
:100D5000AA2762177307840738F09F5F5F4F220F3F
:100D6000331F441FAA1FA9F335D00E2E3AF0E0E836
:100D700032D091505040E695001CCAF72BD0FE2F80
:100D800029D0660F771F881FBB1F26173707480714
:100D9000AB07B0E809F0BB0B802DBF01FF279358CC
:100DA0005F4F3AF09E3F510578F00C94C3070C94C6
:100DB0001C085F3FE4F3983ED4F3869577956795DA
:100DC000B795F7959F5FC9F7880F911D9695879501
:100DD00097F90895E1E0660F771F881FBB1F621720
:100DE00073078407BA0720F0621B730B840BBA0BDE
:100DF000EE1F88F7E09508950E9403076894B111EB
:100E00000C941C0808950E94010888F09F5798F0E0
:100E1000B92F9927B751B0F0E1F0660F771F881FFF
:100E2000991F1AF0BA95C9F714C0B13091F00E9419
:100E30001B08B1E008950C941B08672F782F8827B2
:100E4000B85F39F0B93FCCF3869577956795B39540
:100E5000D9F73EF490958095709561957F4F8F4FAF
:100E60009F4F0895E89409C097FB3EF490958095B4
:100E7000709561957F4F8F4F9F4F9923A9F0F92F60
:100E800096E9BB279395F695879577956795B795DE
:100E9000F111F8CFFAF4BB0F11F460FF1BC06F5FC4
:100EA0007F4F8F4F9F4F16C0882311F096E911C0D6
:100EB000772321F09EE8872F762F05C0662371F0F7
:100EC00096E8862F70E060E02AF09A95660F771F0B
:100ED000881FDAF7880F9695879597F908950E94ED
:100EE000DA0720F019F00E94E10750F40C94D707BC
:100EF0000C941C08E92F0E94F90788F35523B1F3DD
:100F0000E7FB6217730784079507A8F189F3E92FB8
:100F1000FF2788232AF03197660F771F881FDAF79B
:100F2000952F5527442332F091505040220F331F04
:100F3000441FD2F7BB27E91BF50B621B730B840B15
:100F4000B109B1F222F4620F731F841FB11D3197F2
:100F50002AF0660F771F881FBB1FEFCF91505040BC
:100F600062F041F0882332F0660F771F881F91509E
:100F70005040C1F793950C94C9078695779567956E
:100F80009F5FD9F7F7CF97F99F6780E870E060E03F
:100F900008959F3F31F0915020F48795779567959C
:100FA000B795880F911D9695879597F908959FEFAE
:100FB00080EC089500240A941616170618060906F0
:100FC000089500240A9412161306140605060895BF
:100FD000092E0394000C11F4882352F0BB0F40F447
:100FE000BF2B11F460FF04C06F5F7F4F8F4F9F4F87
:100FF000089557FD9058440F551F59F05F3F71F009
:101000004795880F97FB991F61F09F3F79F087956F
:101010000895121613061406551FF2CF4695F1DFF8
:1010200008C0161617061806991FF1CF8695710588
:10103000610508940895E894BB2766277727CB01BC
:1010400097F908950E9435080C94E8070E94DA0782
:1010500038F00E94E10720F0952311F00C94C307AB
:101060000C94D70711240C941C080E94F90770F304
:10107000959FC1F3950F50E0551F629FF001729F3D
:10108000BB27F00DB11D639FAA27F00DB11DAA1F4C
:10109000649F6627B00DA11D661F829F2227B00D99
:1010A000A11D621F739FB00DA11D621F839FA00D24
:1010B000611D221F749F3327A00D611D231F849F74
:1010C000600D211D822F762F6A2F11249F575040CB
:1010D0009AF0F1F088234AF0EE0FFF1FBB1F661F46
:1010E000771F881F91505040A9F79E3F510580F00F
:1010F0000C94C3070C941C085F3FE4F3983ED4F3B0
:10110000869577956795B795F795E7959F5FC1F7B2
:10111000FE2B880F911D9695879597F90895EE0FF0
:0E112000FF1F0590F491E02D0994F894FFCF85
:06112E00FF00FF00911E0E
:00000001FF
