S01A000050726F6772616D6D696E672D4144393833332E73726563FE
S11300000C942B000C9453000C9453000C94530048
S11300100C9453000C9453000C9453000C947302EE
S11300200C9453000C9453000C9453000C94530000
S11300300C9449030C9453000C9453000C945300F7
S11300400C9453000C9453000C9453000C945300E0
S11300500C9453004A0311241FBECFE5D8E0DEBF41
S1130060CDBF10E0A0E6B0E0E2EDF0E102C0059003
S11300700D92AA36B107D9F720E0AAE6B0E001C094
S11300801D92A93BB207E1F710E0CBE2D0E004C037
S11300902197FE010E946108CA32D107C9F70E9464
S11300A052020C9467080C94000011B88AE080B9DD
S11300B00895EF92FF921F93CF93DF93FA01611596
S11300C0710541E08407910538F00197409168007B
S11300D048604093680005C040916800477F4093A2
S11300E0680050916800A72FD8EC14EAE12E44E888
S11300F0B52FB16003C0D15009F4A1C0E6BE06B665
S113010007FEFDCFC1B1C87FC093B800C03129F04C
S1130110C833A1F3C83009F095C053B946BF06B639
S113012007FEFDCFC1B1C87FC093B800C03219F338
S1130130C83321F3C83109F06BC0A3B946BF06B672
S113014007FEFDCFC1B1C87FC093B800C033B1F280
S1130150C833A1F2C83209F05EC063B946BF06B61F
S113016007FEFDCFC1B1C87FC093B800C03309F406
S113017055C0C83319F2C83219F08FEF9FEF5CC035
S113018016BF06B607FEFDCFF1B0CF2DC87FC093D2
S1130190B800C03131F0C83309F4B0CFC83009F029
S11301A040C0B3B946BF06B607FEFDCFF1B0CF2DB0
S11301B0C87FC093B800C03441F0C834A9F1C83333
S11301C009F49CCF8FEF9FEF37C01E161F067CF5F6
S11301D0422F532F80E090E034EC64E8DA01E13000
S11301E0F10509F4362F36BF06B607FEFDCF21B15F
S11301F0287F2093B800203519F0283531F11AC032
S113020023B12C934F5F5F4F0196319739F714C098
S11302108FEF9FEF11C08FEF9FEF0EC080E090E053
S11302200BC08FEF9FEF08C080E090E005C080E036
S113023090E002C08FEF9FEF24E926BF0AC08FEF42
S11302409FEF07C08FEF9FEF04C023B12C9301965B
S1130250F3CFDF91CF911F91FF90EF900895AF926C
S1130260BF92CF92DF92EF92FF920F931F93CF939F
S1130270DF936B017C01EA018901611571058140FD
S1130280910518F5CA01550FAA0BBB0B8C0D9D1DCA
S1130290AE1DBF1D0197A140B105B8F0AA24BB242F
S11302A0AC18BD089801A501C701B6010E94590008
S11302B098012A0D3B1DAE014C0D5D1D60E070E000
S11302C081E090E00E94590006C09801AE01C70188
S11302D0B6010E945900DF91CF911F910F91FF90B9
S11302E0EF90DF90CF90BF90AF90089587B3816A6D
S11302F087BB88B3816188BB89ED8DB9089510BC33
S11303008FE589B988E18AB98EE880BD08958FB9EF
S1130310779BFECF0895CF93C82FC098892F0E9452
S113032087018C2F0E948701C09ACF910895CF92A4
S1130330DF92EF92FF920F931F93CF93DF938A0183
S113034020E030E040E85DE40E94F40720E23CEB6A
S11303504EEB5BE40E945C060E94CE066B017C01BE
S1130360CC2420ECD2222FE0F2220B2EBEE0F59416
S1130370E794D794C794BA95D1F7B02DEB01DF7306
S113038080E091E20E948B01CE0190640E948B0177
S1130390C60190640E948B01C8019F70906C0E94FA
S11303A08B0180E090E20E948B01DF91CF911F913D
S11303B00F91FF90EF90DF90CF9008954F925F924E
S11303C06F927F928F929F92AF92BF92CF92DF9261
S11303D0EF92FF920F931F93CF93DF9300D000D03F
S11303E0CDB7DEB72B013C0149015A016701780101
S11303F060E070E080E89FE30E945C0669837A8392
S11304008B839C8320E034E244E759E4C701B601BE
S11304100E945C0629813A814B815C810E944C07D1
S11304209B01AC010E94F00520ED3FE049E450E45B
S11304300E94F407A50194010E94F4076B017C015A
S11304402CE839EF42E254E4C301B2010E945C0695
S11304509B01AC01C701B6010E94F00520E030E029
S113046040E055E40E94F40720ED3FE049E450E405
S11304700E945C060E94D506CB010F900F900F904E
S11304800F90DF91CF911F910F91FF90EF90DF902C
S1130490CF90BF90AF909F908F907F906F905F9020
S11304A04F9008950E947F010E94760187E08ABBE5
S11304B01FBC1BBA0E945500B99AC19A8FEF9FE8DE
S11304C00197F1F700C0000080E091E00E948B01E9
S11304D040E050E060E070E08AEF94E40E9497010D
S11304E080E090E008951F920F920FB60F921124AE
S11304F08F929F92AF92BF92EF92FF920F931F93AE
S11305002F933F934F935F936F937F938F939F9317
S1130510AF93BF93CF93DF93EF93FF93C091A20068
S1130520D091A3006091B0007091B100072E000C2F
S1130530880B990B0E940607AE010E9497018091D7
S1130540A2009091A3009093A5008093A4006091D1
S1130550B0007091B100072E000C880B990B0E941B
S113056006076093A8007093A9008093AA00909353
S1130570AB001092B1001092B000C0EAD0E0188233
S113058019824091AC005091AD006091AE00709121
S1130590AF008091B4009091B500A091B600B091E5
S11305A0B700440F551F661F771F8A019B01080F70
S11305B0191F2A1F3B1FC901B8019E0142E050E0E8
S11305C00E942F018091B0009091B1002881922B5C
S11305D09093B1008093B0008091B0009091B100ED
S11305E02981822B9093B1008093B0008091AC005C
S11305F09091AD00A091AE00B091AF000196A11D05
S1130600B11D8093AC009093AD00A093AE00B09365
S1130610AF008090A8009090A900A090AA00B0908C
S1130620AB006091A4007091A50080E090E00E946E
S11306300407E12CF12C05E014E4A50194010E94C7
S1130640DE019093A3008093A2008091A600909174
S1130650A70001969093A7008093A600FF91EF91C5
S1130660DF91CF91BF91AF919F918F917F916F91C6
S11306705F914F913F912F911F910F91FF90EF90B8
S1130680BF90AF909F908F900F900FBE0F901F90D0
S1130690189518954F925F926F927F928F929F92C6
S11306A0AF92BF92CF92DF92EF92FF92CF93DF93FC
S11306B0CDB7DEB728970FB6F894DEBF0FBECDBF17
S11306C08091660090916700809590959093B30017
S11306D08093B20060919E0070919F00072E000CE1
S11306E0880B990B0E94060769837A838B839C830A
S11306F060919C0070919D00072E000C880B990B53
S11307000E9406076D837E838F83988760919A0089
S113071070919B00072E000C880B990B0E94060712
S11307206B017C012BED39E743E852E469817A815E
S11307308B819C810E94F4074B015C0128E93EE017
S113074041E053E46D817E818F8198850E94F40796
S11307509B01AC01C501B4010E94F0054B015C0191
S113076022E133E848EC51E4C701B6010E94F407E2
S11307709B01AC01C501B4010E94F0052EEC3BEFD6
S11307804FE75BE30E94F40720E030E040E851E4E7
S11307900E94F0052B013C01609396007093970032
S11307A0809398009093990025EC30EE40EE52E44B
S11307B069817A818B819C810E94F4074B015C01E1
S11307C029ED3EE44CEB52EC6D817E818F8198855E
S11307D00E94F4079B01AC01C501B4010E94F0051D
S11307E04B015C012EEA37E442E951ECC701B60142
S11307F00E94F4079B01AC01C501B4010E94F005FD
S11308002EEC3BEF4FE75BE30E94F40720E030E07F
S113081040E053E40E94F0054B015C0160939200B8
S11308207093930080939400909395002EEA37EC94
S113083047E152EC69817A818B819C810E94F407A3
S113084069837A838B839C832EEE3CEF44E952ECDC
S11308506D817E818F8198850E94F4079B01AC0194
S113086069817A818B819C810E94F00569837A83F6
S11308708B839C8325EC30EE40EE52E4C701B60135
S11308800E94F4079B01AC0169817A818B819C8170
S11308900E94F0052EEC3BEF4FE75BE30E94F40768
S11308A020E030E040E053E40E94F0056B017C015D
S11308B060938E0070938F008093900090939100CA
S11308C029EC38EC48E450E4C301B2010E94F40777
S11308D020E030E84BEB54E40E94F00560938A007A
S11308E070938B0080938C0090938D0029EC38ECEE
S11308F048E450E4C501B4010E94F40720E030E864
S11309004BEB54E40E94F0056093860070938700DB
S1130910809388009093890029EC38EC48E450E4F3
S1130920C701B6010E94F40720E030E84BEB54E421
S11309300E94F0056093820070938300809384008A
S1130940909385006091640070916500072E000CFF
S1130950880B990B0E94060769837A838B839C8397
S11309606091620070916300072E000C880B990B54
S11309700E9406076D837E838F8398876091600051
S113098070916100072E000C880B990B0E940607DA
S11309906B017C012BED39E743E852E469817A81EC
S11309A08B819C810E94F4074B015C0128E93EE0A5
S11309B041E053E46D817E818F8198850E94F40724
S11309C09B01AC01C501B4010E94F0054B015C011F
S11309D022E133E848EC51E4C701B6010E94F40770
S11309E09B01AC01C501B4010E94F0052EEC3BEF64
S11309F04FE75BE30E94F40720E030E040E851E475
S1130A000E94F0052B013C0160937E0070937F00EF
S1130A10809380009093810025EC30EE40EE52E408
S1130A2069817A818B819C810E94F4074B015C016E
S1130A3029ED3EE44CEB52EC6D817E818F819885EB
S1130A400E94F4079B01AC01C501B4010E94F005AA
S1130A504B015C012EEA37E442E951ECC701B601CF
S1130A600E94F4079B01AC01C501B4010E94F0058A
S1130A702EEC3BEF4FE75BE30E94F40720E030E00D
S1130A8040E053E40E94F0054B015C0160937A005E
S1130A9070937B0080937C0090937D002EEA37EC6A
S1130AA047E152EC69817A818B819C810E94F40731
S1130AB069837A838B839C832EEE3CEF44E952EC6A
S1130AC06D817E818F8198850E94F4079B01AC0122
S1130AD069817A818B819C810E94F00569837A8384
S1130AE08B839C8325EC30EE40EE52E4C701B601C3
S1130AF00E94F4079B01AC0169817A818B819C81FE
S1130B000E94F0052EEC3BEF4FE75BE30E94F407F5
S1130B1020E030E040E053E40E94F0056B017C01EA
S1130B2060937600709377008093780090937900B7
S1130B3029EC38EC48E450E4C301B2010E94F40704
S1130B4020E030E84BEB54E40E94F005609372001F
S1130B5070937300809374009093750029EC38ECC3
S1130B6048E450E4C501B4010E94F40720E030E8F1
S1130B704BEB54E40E94F00560936E0070936F0099
S1130B80809370009093710029EC38EC48E450E4B1
S1130B90C701B6010E94F40720E030E84BEB54E4AF
S1130BA00E94F00560936A0070936B0080936C0060
S1130BB090936D0028960FB6F894DEBF0FBECDBF9C
S1130BC0DF91CF91FF90EF90DF90CF90BF90AF90E7
S1130BD09F908F907F906F905F904F9008955058A2
S1130BE0BB27AA270E9407060C94BA070E94AC07E9
S1130BF038F00E94B30720F039F49F3F19F426F42B
S1130C000C94A9070EF4E095E7FB0C949507E92FE3
S1130C100E94CB0758F3BA17620773078407950736
S1130C2020F079F4A6F50C94ED070EF4E0950B2E64
S1130C30BA2FA02D0B01B90190010C01CA01A0012A
S1130C401124FF27591B99F0593F50F4503E68F185
S1130C501A16F040A22F232F342F4427585FF3CFC6
S1130C60469537952795A795F0405395C9F77EF497
S1130C701F16BA0B620B730B840BBAF09150A1F0E0
S1130C80FF0FBB1F661F771F881FC2F70EC0BA0F66
S1130C90621F731F841F48F4879577956795B795EE
S1130CA0F7959E3F08F0B0CF9395880F08F09927E9
S1130CB0EE0F9795879508950E9470060C94BA07D5
S1130CC00E94B30758F00E94AC0740F029F45F3F3C
S1130CD029F00C94950751110C94EE070C94A90774
S1130CE00E94CB0768F39923B1F3552391F3951B25
S1130CF0550BBB27AA2762177307840738F09F5F39
S1130D005F4F220F331F441FAA1FA9F335D00E2EA5
S1130D103AF0E0E832D091505040E695001CCAF712
S1130D202BD0FE2F29D0660F771F881FBB1F2617D5
S1130D3037074807AB07B0E809F0BB0B802DBF01AC
S1130D40FF2793585F4F3AF09E3F510578F00C947B
S1130D5095070C94EE075F3FE4F3983ED4F3869531
S1130D6077956795B795F7959F5FC9F7880F911D9C
S1130D709695879597F90895E1E0660F771F881F88
S1130D80BB1F621773078407BA0720F0621B730B3B
S1130D90840BBA0BEE1F88F7E09508950E94D506E0
S1130DA06894B1110C94EE0708950E94D30788F05B
S1130DB09F5798F0B92F9927B751B0F0E1F0660F1B
S1130DC0771F881F991F1AF0BA95C9F714C0B1305C
S1130DD091F00E94ED07B1E008950C94ED07672FA0
S1130DE0782F8827B85F39F0B93FCCF3869577958B
S1130DF06795B395D9F73EF4909580957095619574
S1130E007F4F8F4F9F4F0895E89409C097FB3EF49E
S1130E1090958095709561957F4F8F4F9F4F992343
S1130E20A9F0F92F96E9BB279395F69587957795C1
S1130E306795B795F111F8CFFAF4BB0F11F460FF81
S1130E401BC06F5F7F4F8F4F9F4F16C0882311F0D9
S1130E5096E911C0772321F09EE8872F762F05C0ED
S1130E60662371F096E8862F70E060E02AF09A9588
S1130E70660F771F881FDAF7880F9695879597F97D
S1130E8008950E94AC0720F019F00E94B30750F4B3
S1130E900C94A9070C94EE07E92F0E94CB0788F362
S1130EA05523B1F3E7FB6217730784079507A8F18D
S1130EB089F3E92FFF2788232AF03197660F771FDC
S1130EC0881FDAF7952F5527442332F0915050406C
S1130ED0220F331F441FD2F7BB27E91BF50B621BFC
S1130EE0730B840BB109B1F222F4620F731F841FD8
S1130EF0B11D31972AF0660F771F881FBB1FEFCFF4
S1130F009150504062F041F0882332F0660F771F11
S1130F10881F91505040C1F793950C949B07869578
S1130F20779567959F5FD9F7F7CF97F99F6780E823
S1130F3070E060E008959F3F31F0915020F4879570
S1130F4077956795B795880F911D9695879597F92D
S1130F5008959FEF80EC089500240A94161617064E
S1130F6018060906089500240A9412161306140696
S1130F7005060895092E0394000C11F4882352F0F9
S1130F80BB0F40F4BF2B11F460FF04C06F5F7F4FB1
S1130F908F4F9F4F089557FD9058440F551F59F098
S1130FA05F3F71F04795880F97FB991F61F09F3F52
S1130FB079F087950895121613061406551FF2CF7B
S1130FC04695F1DF08C0161617061806991FF1CFCB
S1130FD086957105610508940895E894BB276627F2
S1130FE07727CB0197F908950E9407080C94BA0754
S1130FF00E94AC0738F00E94B30720F0952311F04B
S11310000C9495070C94A90711240C94EE070E94E4
S1131010CB0770F3959FC1F3950F50E0551F629F66
S1131020F001729FBB27F00DB11D639FAA27F00D3D
S1131030B11DAA1F649F6627B00DA11D661F829F64
S11310402227B00DA11D621F739FB00DA11D621F49
S1131050839FA00D611D221F749F3327A00D611D66
S1131060231F849F600D211D822F762F6A2F112448
S11310709F5750409AF0F1F088234AF0EE0FFF1F7B
S1131080BB1F661F771F881F91505040A9F79E3FD2
S1131090510580F00C9495070C94EE075F3FE4F340
S11310A0983ED4F3869577956795B795F795E79528
S11310B09F5FC1F7FE2B880F911D9695879597F931
S11310C00895EE0FFF1F0590F491E02D0994F89414
S10510D0FFCF4C
S10D10D2FF00FF00FF00A61EA600A9
S9030000FC
