S01A000050726F6772616D6D696E672D4144393833332E73726563FE
S11300000C942A000C9434000C9434000C943400A6
S11300100C9434000C9434000C9434000C9434008C
S11300200C9434000C9434000C9434000C9434007C
S11300300C9434000C9434000C9434000C9434006C
S11300400C9434000C9434000C9434000C9434005C
S11300500C94340011241FBECFE5D8E0DEBFCDBF21
S11300600E9497000C9408030C94000081EA87BB5B
S113007081E188BB89ED8DB9089510BC8FE589B9FC
S113008088E18AB98EE880BD0895C49A8FB9779BB8
S1130090FECF0895CF93C82FC098892F0E944500A2
S11300A08C2F0E944500C09ACF910895CF92DF9281
S11300B0EF92FF92CF93DF9320E030E040E85DE4DD
S11300C00E949B0220E23CEB4EEB5BE40E94A20107
S11300D00E9414026B017C01CC2420ECD2222FE07C
S11300E0F2220B2EBEE0F594E794D794C794BA9508
S11300F0D1F7B02DEB01DF7380E091E20E944A005A
S1130100CE0190640E944A00C60190640E944A0095
S113011080E090EC0E944A0080E091E20E944A0054
S1130120DF91CF91FF90EF90DF90CF9008950E94E0
S11301303D000E94360087E08ABB1BBA80E091E054
S11301400E944A0060E070E88DEE94E40E9456003C
S11301502FEF8FE79DE0215080409040E1F700C0F1
S1130160000060E070E086E994E40E9456008FEF9E
S11301709FE80197F1F700C0000060E070E88DEEA1
S113018094E40E9456009FEF2FE78DE091502040A9
S11301908040E1F700C0000060E070E086E994E48C
S11301A00E94560099E929E581E091502040804061
S11301B0E1F7000060E070E889E894E40E945600EA
S11301C099E929E581E0915020408040E1F7000061
S11301D060E070E889E894E40E94560099E929E512
S11301E081E0915020408040E1F7000060E070E839
S11301F082EA94E40E94560099E929E581E091504D
S113020020408040E1F7000060E070E882EA94E476
S11302100E94560099E929E581E0915020408040F0
S1130220E1F7000060E070E882EA94E40E9456007E
S113023099E929E581E0915020408040E1F70000F0
S113024060E070E889E894E40E94560099E929E5A1
S113025081E0915020408040E1F7000060E070E8C8
S113026089E894E40E94560099E929E581E09150D7
S113027020408040E1F7000060E070E889E894E401
S11302800E94560099E929E581E091502040804080
S1130290E1F7000060E070E086E994E40E94560013
S11302A099E929E581E0915020408040E1F7000080
S11302B0C0E0D1E060E070E086E994E40E9456007A
S11302C096E626EE80E0915020408040E1F760E021
S11302D070E88BEB94E40E94560083EF9DE1019754
S11302E0F1F700C064E47EEE86E095E40E945600D7
S11302F08BEF96E00197F1F7000064E976ED84EF67
S113030094E40E9456008BEF96E00197F1F7000009
S113031064E077EC81EC94E40E9456008BEF96E065
S11303200197F1F7000064E47EEE86E095E40E9414
S113033056008BEF96E00197F1F70000219709F042
S1130340B9CFFFCF0E94B6010C9461020E945A02F9
S113035058F00E94530240F029F45F3F29F00C94B6
S11303604A0251110C9495020C9450020E9472029C
S113037068F39923B1F3552391F3951B550BBB27D0
S1130380AA2762177307840738F09F5F5F4F220F15
S1130390331F441FAA1FA9F335D00E2E3AF0E0E80C
S11303A032D091505040E695001CCAF72BD0FE2F56
S11303B029D0660F771F881FBB1F261737074807EA
S11303C0AB07B0E809F0BB0B802DBF01FF279358A2
S11303D05F4F3AF09E3F510578F00C944A020C941A
S11303E095025F3FE4F3983ED4F38695779567953D
S11303F0B795F7959F5FC9F7880F911D96958795D7
S113040097F90895E1E0660F771F881FBB1F6217F5
S113041073078407BA0720F0621B730B840BBA0BB3
S1130420EE1F88F7E09508950E941B026894B111AD
S11304300C94950208950E947A0288F09F5798F0D0
S1130440B92F9927B751B0F0E1F0660F771F881FD5
S1130450991F1AF0BA95C9F714C0B13091F00E94EF
S11304609402B1E008950C949402672F782F8827A2
S1130470B85F39F0B93FCCF3869577956795B39516
S1130480D9F73EF490958095709561957F4F8F4F85
S11304909F4F089597F99F6780E870E060E00895A2
S11304A09FEF80EC089500240A9416161706180688
S11304B00906089500240A94121613061406050664
S11304C00895092E0394000C11F4882352F0BB0FF5
S11304D040F4BF2B11F460FF04C06F5F7F4F8F4F58
S11304E09F4F089557FD9058440F551F59F05F3F93
S11304F071F04795880F97FB991F61F09F3F79F042
S113050087950895121613061406551FF2CF4695C3
S1130510F1DF08C0161617061806991FF1CF869545
S11305207105610508940895E894BB276627772729
S1130530CB0197F908950E94AE020C9461020E94C7
S1130540530238F00E945A0220F0952311F00C94C3
S11305504A020C94500211240C9495020E947202D7
S113056070F3959FC1F3950F50E0551F629FF00102
S1130570729FBB27F00DB11D639FAA27F00DB11D1B
S1130580AA1F649F6627B00DA11D661F829F2227A4
S1130590B00DA11D621F739FB00DA11D621F839F2B
S11305A0A00D611D221F749F3327A00D611D231F01
S11305B0849F600D211D822F762F6A2F11249F574F
S11305C050409AF0F1F088234AF0EE0FFF1FBB1F52
S11305D0661F771F881F91505040A9F79E3F510511
S11305E080F00C944A020C9495025F3FE4F3983E29
S11305F0D4F3869577956795B795F795E7959F5FBB
S1130600C1F7FE2B880F911D9695879597F908954C
S1070610F894FFCF88
S9030000FC
