S01A000050726F6772616D6D696E672D4144393833332E73726563FE
S11300000C942A000C9434000C9434000C943400A6
S11300100C9434000C9434000C9434000C9434008C
S11300200C9434000C9434000C9434000C9434007C
S11300300C9434000C9434000C9434000C9434006C
S11300400C9434000C9434000C9434000C9434005C
S11300500C94340011241FBECFE5D8E0DEBFCDBF21
S11300600E941B010C948D020C94000081EA87BB52
S113007087E08ABB1BBAE8E3F0E080818168808373
S113008089ED8DB9089581309105B1F082309105E3
S113009021F1892B91F5EBE3F0E08081816080838D
S11300A020E533EC40E751E0CA010197F1F7215014
S11300B03040D1F71BBA0895EBE3F0E08081826011
S11300C0808320E533EC40E751E0CA010197F1F762
S11300D021503040D1F71BBA0895EBE3F0E0808162
S11300E08460808320E533EC40E751E0CA01019746
S11300F0F1F721503040D1F71BBA08951F93182F00
S113010080E090E00E9443001FB988E18A95F1F7EE
S11301100000EEE2F0E080818823ECF781E090E0DB
S11301200E9443001F910895EF92FF920F931F9333
S1130130E82EF92E81E090E00E94430008E310E0ED
S1130140F80180818E7F808382E090E00E944300EA
S11301508F2D0E947E008E2D0E947E0080E090E014
S11301600E944300F8018081816080831F910F9178
S1130170FF90EF900895AF92BF92CF92DF92EF92EB
S1130180FF920F931F9320E030E040E85DE40E946B
S11301902A0220E23CEB4EEB5BE40E9440010E9409
S11301A0A8015B016C010F2EF0E0EF2EF0ECFF2EA6
S11301B0FFEF0F2FFFE01F2FF02DE622F722082379
S11301C019230D2EDEE015950795F794E794DA953B
S11301D0D1F7D02D8FEF9FE3A822B92281E090E0E0
S11301E00E94430080E091E20E94940080E090E04D
S11301F00E944300C70190640E94940081E090E053
S11302000E944300C50190640E94940082E090E043
S11302100E94430080E090EC0E94940082E090E20F
S11302200E9494001F910F91FF90EF90DF90CF9068
S1130230BF90AF9008950E94360080E091E00E9444
S1130240940082E090E00E94430028E833E140E714
S113025051E0CA010197F1F721503040D1F780E015
S113026091E00E94940082E090E00E94430060E0EC
S113027070E08AE795E440E050E00E94BB00F7CFCD
S11302800CD0AEC0A6D040F09DD030F021F45F3F3A
S113029019F08FC05111D8C092C0B3D098F39923EC
S11302A0C9F35523B1F3951B550BBB27AA27621736
S11302B07307840738F09F5F5F4F220F331F441F7B
S11302C0AA1FA9F333D00E2E3AF0E0E830D09150B3
S11302D05040E695001CCAF729D0FE2F27D0660FA0
S11302E0771F881FBB1F261737074807AB07B0E8DF
S11302F009F0BB0B802DBF01FF2793585F4F2AF0F5
S11303009E3F510568F055C09FC05F3FECF3983E97
S1130310DCF3869577956795B795F7959F5FC9F751
S1130320880F911D9695879597F90895E1E0660FDA
S1130330771F881FBB1F621773078407BA0720F053
S1130340621B730B840BBA0BEE1F88F7E0950895BC
S113035004D06894B11178C008955BD088F09F5799
S113036090F0B92F9927B751A0F0D1F0660F771FFD
S1130370881F991F1AF0BA95C9F712C0B13081F0DD
S113038062D0B1E008955FC0672F782F8827B85FE7
S113039039F0B93FCCF3869577956795B395D9F73E
S11303A03EF490958095709561957F4F8F4F9F4F48
S11303B0089597F99F6780E870E060E008959FEFE3
S11303C080EC089500240A941616170618060906E8
S11303D0089500240A9412161306140605060895B7
S11303E0092E0394000C11F4882352F0BB0F40F43F
S11303F0BF2B11F460FF04C06F5F7F4F8F4F9F4F7F
S1130400089557FD9058440F551F59F05F3F71F000
S11304104795880F97FB991F61F09F3F79F0879567
S11304200895121613061406551FF2CF4695F1DFF0
S113043008C0161617061806991FF1CF8695710580
S1130440610508940895E894BB2766277727CB01B4
S113045097F908950BD0C4CFB5DF28F0BADF18F0B0
S1130460952309F0A6CFABCF1124EECFCADFA0F3BA
S1130470959FD1F3950F50E0551F629FF001729F35
S1130480BB27F00DB11D639FAA27F00DB11DAA1F54
S1130490649F6627B00DA11D661F829F2227B00DA1
S11304A0A11D621F739FB00DA11D621F839FA00D2C
S11304B0611D221F749F3327A00D611D231F849F7C
S11304C0600D211D822F762F6A2F11249F575040D3
S11304D08AF0E1F088234AF0EE0FFF1FBB1F661F6E
S11304E0771F881F91505040A9F79E3F510570F027
S11304F060CFAACF5F3FECF3983EDCF38695779507
S11305006795B795F795E7959F5FC1F7FE2B880F21
S1110510911D9695879597F90895F894FFCF5D
S9030000FC
