:100000000C942B000C9453000C9453000C9453004C
:100010000C9453000C9453000C9453000C944B011B
:100020000C9453000C9453000C9453000C94530004
:100030000C9409030C9453000C9453000C9453003B
:100040000C9453000C9453000C9453000C945300E4
:100050000C9453000A0311241FBECFE5D8E0DEBF85
:10006000CDBF10E0A0E6B0E0E4EFF0E102C0059003
:100070000D92A836B107D9F720E0A8E6B0E001C09C
:100080001D92A43BB207E1F710E0CBE2D0E004C040
:100090002197FE010E947208CA32D107C9F70E9457
:1000A00033010C9478080C94000081EA87BB81E14D
:1000B00088BB89ED8DB9089510BC8FE589B988E1B9
:1000C0008AB98EE880BD08955D9BFECF8CB90895F6
:1000D0008FB9779BFECF0895CF93C82FC098892FF3
:1000E0000E9468008C2F0E946800C09ACF910895EA
:1000F000CF92DF92EF92FF920F931F93CF93DF93F4
:100100008A0120E030E040E85DE40E94DD0720E263
:100110003CEB4EEB5BE40E9421060E9493066B01D0
:100120007C01CC2420ECD2222FE0F2220B2EBEE068
:10013000F594E794D794C794BA95D1F7B02DEB0115
:10014000DF7380E091E20E946C00CE0190640E9417
:100150006C00C60190640E946C00C8019F70906C96
:100160000E946C0080E090E20E946C00DF91CF91D1
:100170001F910F91FF90EF90DF90CF9008954F92D5
:100180005F926F927F928F929F92AF92BF92CF9227
:10019000DF92EF92FF920F931F93CF93DF9300D0E4
:1001A00000D0CDB7DEB72B013C0149015A016701F0
:1001B000780160E070E080E89FE30E942106698397
:1001C0007A838B839C8320E034E244E759E4C701BF
:1001D000B6010E94210629813A814B815C810E94EF
:1001E00011079B01AC010E94B00520ED3FE049E4FE
:1001F00050E40E94DD07A50194010E94DD076B0118
:100200007C012CE839EF42E254E4C301B2010E94C0
:1002100021069B01AC01C701B6010E94B00520E098
:1002200030E040E055E40E94DD0720ED3FE049E486
:1002300050E40E9421060E949A06CB010F900F9075
:100240000F900F90DF91CF911F910F91FF90EF9042
:10025000DF90CF90BF90AF909F908F907F906F90E6
:100260005F904F9008950E945C000E94550087E0C7
:100270008ABB1FBC1BBA81E60E94640080E091E04B
:100280000E946C0040E050E060E070EC8FE095E48C
:100290000E947800FFCF1F920F920FB60F92112489
:1002A0008F929F92AF92BF92CF92DF92EF92FF9286
:1002B0000F931F932F933F934F935F936F937F936E
:1002C0008F939F93AF93BF93CF93DF93EF93FF935E
:1002D0008091A0009091A100892B99F44091A400F5
:1002E0005091A5006091AE007091AF008091B00078
:1002F0009091B1000E94780010929F0010929E0091
:1003000009C080919E0090919F00019690939F005C
:1003100080939E008091A4009091A5009093A700E7
:100320008093A6008091AE009091AF00A091B000A4
:10033000B091B1008093AA009093AB00A093AC0061
:10034000B093AD008091A8009091A900029764E15C
:1003500070E00E944A08892B09F0DBC08091A80058
:100360009091A900029764E170E00E944A0870939E
:10037000A3006093A2008091A2009091A30080FD51
:100380005DC08091A2009091A3000F978CF48091A2
:10039000880090918900A0918A00B0918B00809391
:1003A000AE009093AF00A093B000B093B100B1C085
:1003B0008091A2009091A3004F978CF480918400CB
:1003C00090918500A0918600B09187008093AE0047
:1003D0009093AF00A093B000B093B1009AC0809109
:1003E000A2009091A3008F978CF48091800090914F
:1003F0008100A0918200B09183008093AE00909321
:10040000AF00A093B000B093B10083C08091A20070
:100410009091A300CF970CF07CC0809188009091C0
:100420008900A0918A00B0918B008093AE009093D8
:10043000AF00A093B000B093B1006BC08091A20058
:100440009091A30081709078992324F401978E6F86
:100450009F6F0196019709F05CC08091A200909176
:10046000A30040978CF48091700090917100A0914E
:100470007200B09173008093AE009093AF00A09390
:10048000B000B093B10045C08091A2009091A3004C
:1004900080978CF480916C0090916D00A0916E001B
:1004A000B0916F008093AE009093AF00A093B00026
:1004B000B093B1002EC08091A2009091A300C0978C
:1004C0008CF48091680090916900A0916A00B091CD
:1004D0006B008093AE009093AF00A093B000B093F8
:1004E000B10017C08091A2009091A30080349105C3
:1004F00084F48091700090917100A0917200B0918D
:1005000073008093AE009093AF00A093B000B093BF
:10051000B10020919E0030919F008090AA009090A1
:10052000AB00A090AC00B090AD00C091A600D091FF
:10053000A70084E192E0289FB001299F700D389FA9
:10054000700D1124072E000C880B990B0E94CB060E
:100550006B017C01BE0180E090E00E94C90687012A
:100560007601A50194010E94BF009093A50080939D
:10057000A4008091A8009091A90001969093A900F1
:100580008093A8006091AE007091AF008091B000A0
:100590009091B1002091AA003091AB004091AC0045
:1005A0005091AD000E941C06811107C081E090E0CF
:1005B0009093A1008093A00004C01092A10010921B
:1005C000A0008091A8009091A9008115954021F488
:1005D0001092A1001092A000FF91EF91DF91CF91B6
:1005E000BF91AF919F918F917F916F915F914F914B
:1005F0003F912F911F910F91FF90EF90DF90CF903F
:10060000BF90AF909F908F900F900FBE0F901F9054
:10061000189518954F925F926F927F928F929F924A
:10062000AF92BF92CF92DF92EF92FF92CF93DF9380
:10063000CDB7DEB728970FB6F894DEBF0FBECDBF9B
:100640008091660090916700809590959093B3009B
:100650008093B20060919C0070919D00072E000C69
:10066000880B990B0E94CB0669837A838B839C83CA
:1006700060919A0070919B00072E000C880B990BDB
:100680000E94CB066D837E838F839887609198004C
:1006900070919900072E000C880B990B0E94CB06D5
:1006A0006B017C012BED39E743E852E469817A81E3
:1006B0008B819C810E94DD074B015C0128E93EE0B3
:1006C00041E053E46D817E818F8198850E94DD0732
:1006D0009B01AC01C501B4010E94B0054B015C0156
:1006E00022E133E848EC51E4C701B6010E94DD077E
:1006F0009B01AC01C501B4010E94B0052EEC3BEF9B
:100700004FE75BE30E94DD0720E030E040E851E482
:100710000E94B0052B013C016093940070939500FA
:10072000809396009093970025EC30EE40EE52E4D3
:1007300069817A818B819C810E94DD074B015C017C
:1007400029ED3EE44CEB52EC6D817E818F819885E2
:100750000E94DD079B01AC01C501B4010E94B005F8
:100760004B015C012EEA37E442E951ECC701B601C6
:100770000E94DD079B01AC01C501B4010E94B005D8
:100780002EEC3BEF4FE75BE30E94DD0720E030E01B
:1007900040E053E40E94B0054B015C01609390007F
:1007A0007093910080939200909393002EEA37EC1F
:1007B00047E152EC69817A818B819C810E94DD073F
:1007C00069837A838B839C832EEE3CEF44E952EC61
:1007D0006D817E818F8198850E94DD079B01AC0130
:1007E00069817A818B819C810E94B00569837A83BB
:1007F0008B839C8325EC30EE40EE52E4C701B601BA
:100800000E94DD079B01AC0169817A818B819C810B
:100810000E94B0052EEC3BEF4FE75BE30E94DD0743
:1008200020E030E040E053E40E94B0056B017C0121
:1008300060938C0070938D0080938E0090938F0056
:1008400029EC38EC48E450E4C301B2010E94DD0712
:1008500020E030E84BEB54E40E94B0056093880040
:100860007093890080938A0090938B0029EC38EC78
:1008700048E450E4C501B4010E94DD0720E030E8FF
:100880004BEB54E40E94B0056093840070938500A4
:10089000809386009093870029EC38EC48E450E47C
:1008A000C701B6010E94DD0720E030E84BEB54E4BD
:1008B0000E94B00560938000709381008093820055
:1008C000909383006091640070916500072E000C86
:1008D000880B990B0E94CB0669837A838B839C8358
:1008E0006091620070916300072E000C880B990BD9
:1008F0000E94CB066D837E838F8398876091600012
:1009000070916100072E000C880B990B0E94CB069A
:100910006B017C012BED39E743E852E469817A8170
:100920008B819C810E94DD074B015C0128E93EE040
:1009300041E053E46D817E818F8198850E94DD07BF
:100940009B01AC01C501B4010E94B0054B015C01E3
:1009500022E133E848EC51E4C701B6010E94DD070B
:100960009B01AC01C501B4010E94B0052EEC3BEF28
:100970004FE75BE30E94DD0720E030E040E851E410
:100980000E94B0052B013C0160937C0070937D00B8
:1009900080937E0090937F0025EC30EE40EE52E491
:1009A00069817A818B819C810E94DD074B015C010A
:1009B00029ED3EE44CEB52EC6D817E818F81988570
:1009C0000E94DD079B01AC01C501B4010E94B00586
:1009D0004B015C012EEA37E442E951ECC701B60154
:1009E0000E94DD079B01AC01C501B4010E94B00566
:1009F0002EEC3BEF4FE75BE30E94DD0720E030E0A9
:100A000040E053E40E94B0054B015C016093780024
:100A10007093790080937A0090937B002EEA37ECF4
:100A200047E152EC69817A818B819C810E94DD07CC
:100A300069837A838B839C832EEE3CEF44E952ECEE
:100A40006D817E818F8198850E94DD079B01AC01BD
:100A500069817A818B819C810E94B00569837A8348
:100A60008B839C8325EC30EE40EE52E4C701B60147
:100A70000E94DD079B01AC0169817A818B819C8199
:100A80000E94B0052EEC3BEF4FE75BE30E94DD07D1
:100A900020E030E040E053E40E94B0056B017C01AF
:100AA0006093740070937500809376009093770044
:100AB00029EC38EC48E450E4C301B2010E94DD07A0
:100AC00020E030E84BEB54E40E94B00560937000E6
:100AD00070937100809372009093730029EC38EC4E
:100AE00048E450E4C501B4010E94DD0720E030E88D
:100AF0004BEB54E40E94B00560936C0070936D0062
:100B000080936E0090936F0029EC38EC48E450E439
:100B1000C701B6010E94DD0720E030E84BEB54E44A
:100B20000E94B005609368007093690080936A002A
:100B300090936B0028960FB6F894DEBF0FBECDBF22
:100B4000DF91CF91FF90EF90DF90CF90BF90AF906B
:100B50009F908F907F906F905F904F900895505826
:100B6000BB27AA270E94C7050C94A3070E949507DC
:100B700038F00E949C0720F039F49F3F19F426F4C6
:100B80000C9492070EF4E095E7FB0C947E07E92F96
:100B90000E94B40758F3BA176207730784079507D2
:100BA00020F079F4A6F50C94D6070EF4E0950B2E00
:100BB000BA2FA02D0B01B90190010C01CA01A001AF
:100BC0001124FF27591B99F0593F50F4503E68F10A
:100BD0001A16F040A22F232F342F4427585FF3CF4B
:100BE000469537952795A795F0405395C9F77EF41C
:100BF0001F16BA0B620B730B840BBAF09150A1F065
:100C0000FF0FBB1F661F771F881FC2F70EC0BA0FEA
:100C1000621F731F841F48F4879577956795B79572
:100C2000F7959E3F08F0B0CF9395880F08F099276D
:100C3000EE0F9795879508950E945A0708F481E072
:100C400008950E9435060C94A3070E949C0758F053
:100C50000E94950740F029F45F3F29F00C947E072D
:100C600051110C94D7070C9492070E94B40768F3B3
:100C70009923B1F3552391F3951B550BBB27AA2755
:100C800062177307840738F09F5F5F4F220F331F8F
:100C9000441FAA1FA9F335D00E2E3AF0E0E832D057
:100CA00091505040E695001CCAF72BD0FE2F29D05A
:100CB000660F771F881FBB1F261737074807AB072C
:100CC000B0E809F0BB0B802DBF01FF2793585F4FA1
:100CD0003AF09E3F510578F00C947E070C94D707AC
:100CE0005F3FE4F3983ED4F3869577956795B79583
:100CF000F7959F5FC9F7880F911D9695879597F98E
:100D00000895E1E0660F771F881FBB1F6217730706
:100D10008407BA0720F0621B730B840BBA0BEE1F1B
:100D200088F7E09508950E949A066894B1110C9492
:100D3000D70708950E94BC0788F09F5798F0B92FF5
:100D40009927B751B0F0E1F0660F771F881F991F00
:100D50001AF0BA95C9F714C0B13091F00E94D607C5
:100D6000B1E008950C94D607672F782F8827B85FD5
:100D700039F0B93FCCF3869577956795B395D9F758
:100D80003EF490958095709561957F4F8F4F9F4F62
:100D90000895E89409C097FB3EF49095809570956E
:100DA00061957F4F8F4F9F4F9923A9F0F92F96E9B7
:100DB000BB279395F695879577956795B795F1112C
:100DC000F8CFFAF4BB0F11F460FF1BC06F5F7F4FC9
:100DD0008F4F9F4F16C0882311F096E911C07723DB
:100DE00021F09EE8872F762F05C0662371F096E8E4
:100DF000862F70E060E02AF09A95660F771F881FB3
:100E0000DAF7880F9695879597F908950E949507C8
:100E100020F019F00E949C0750F40C9492070C9457
:100E2000D707E92F0E94B40788F35523B1F3E7FBF6
:100E30006217730784079507A8F189F3E92FFF2745
:100E400088232AF03197660F771F881FDAF7952FCE
:100E50005527442332F091505040220F331F441F36
:100E6000D2F7BB27E91BF50B621B730B840BB1098F
:100E7000B1F222F4620F731F841FB11D31972AF063
:100E8000660F771F881FBB1FEFCF9150504062F055
:100E900041F0882332F0660F771F881F9150504031
:100EA000C1F793950C9484078695779567959F5F16
:100EB000D9F7F7CF990F0008550FAA0BE0E8FEEF1E
:100EC00016161706E807F907C0F012161306E4070E
:100ED000F50798F0621B730B840B950B39F40A2607
:100EE00061F0232B242B252B21F408950A2609F4E5
:100EF000A140A6958FEF811D811D089597F99F67E9
:100F000080E870E060E008959F3F31F0915020F458
:100F1000879577956795B795880F911D96958795D5
:100F200097F908959FEF80EC089500240A9416160F
:100F3000170618060906089500240A9412161306C7
:100F4000140605060895092E0394000C11F4882355
:100F500052F0BB0F40F4BF2B11F460FF04C06F5F71
:100F60007F4F8F4F9F4F089557FD9058440F551F47
:100F700059F05F3F71F04795880F97FB991F61F01B
:100F80009F3F79F087950895121613061406551F92
:100F9000F2CF4695F1DF08C0161617061806991FFE
:100FA000F1CF86957105610508940895E894BB27F3
:100FB00066277727CB0197F908950E94F0070C94D4
:100FC000A3070E94950738F00E949C0720F0952304
:100FD00011F00C947E070C94920711240C94D707FF
:100FE0000E94B40770F3959FC1F3950F50E0551F11
:100FF000629FF001729FBB27F00DB11D639FAA276E
:10100000F00DB11DAA1F649F6627B00DA11D661FBC
:10101000829F2227B00DA11D621F739FB00DA11DDD
:10102000621F839FA00D611D221F749F3327A00D97
:10103000611D231F849F600D211D822F762F6A2F33
:1010400011249F5750409AF0F1F088234AF0EE0F98
:10105000FF1FBB1F661F771F881F91505040A9F7C5
:101060009E3F510580F00C947E070C94D7075F3F9C
:10107000E4F3983ED4F3869577956795B795F79501
:10108000E7959F5FC1F7FE2B880F911D9695879579
:1010900097F9089597FB072E16F4009407D077FD73
:1010A00009D00E945E0807FC05D03EF4909581951A
:1010B0009F4F0895709561957F4F0895AA1BBB1BA4
:1010C00051E107C0AA1FBB1FA617B70710F0A61B48
:1010D000B70B881F991F5A95A9F780959095BC0169
:1010E000CD010895EE0FFF1F0590F491E02D0994B6
:0410F000F894FFCFA2
:0810F400FF00FF00FF00A61E33
:00000001FF
