S01A000050726F6772616D6D696E672D4144393833332E73726563FE
S11300000C942A000C9434000C9434000C943400A6
S11300100C9434000C9434000C9434000C9434008C
S11300200C9434000C9434000C9434000C9434007C
S11300300C9434000C9434000C9434000C9434006C
S11300400C9434000C9434000C9434000C9434005C
S11300500C94340011241FBECFE5D8E0DEBFCDBF21
S11300600E9496000C9453030C94000081EA87BB11
S113007081E188BB89ED8DB9089510BC8FE589B9FC
S113008088E18AB98EE880BD08958FB9779BFECF49
S11300900895CF93C82FC098892F0E9445008C2FB4
S11300A00E944500C09ACF910895CF92DF92EF92BB
S11300B0FF92CF93DF9320E030E040E85DE40E94BC
S11300C0E60220E23CEB4EEB5BE40E94ED010E9471
S11300D05F026B017C01CC2420ECD2222FE0F222BF
S11300E00B2EBEE0F594E794D794C794BA95D1F754
S11300F0B02DEB01DF7380E091E20E944900CE0154
S113010090640E944900C60190640E94490080E006
S113011090EC0E94490080E090E20E944900DF9147
S1130120CF91FF90EF90DF90CF9008950E943D0013
S11301300E94360087E08ABB1BBA80E091E00E94EF
S1130140490060E070E88DEE94E40E9455002FEFC2
S11301508FE79DE0215080409040E1F700C000000F
S113016060E070E086E994E40E9455008FEF9FE818
S11301700197F1F700C0000060E070E88DEE94E4B0
S11301800E9455009FEF2FE78DE091502040804062
S1130190E1F700C0000060E070E086E994E40E94AA
S11301A0550099E929E581E0915020408040E1F72C
S11301B0000060E070E889E894E40E94550099E941
S11301C029E581E0915020408040E1F7000060E0A3
S11301D070E889E894E40E94550099E929E581E0F2
S11301E0915020408040E1F7000060E070E882EA2E
S11301F094E40E94550099E929E581E0915020405A
S11302008040E1F7000060E070E882EA94E40E9434
S1130210550099E929E581E0915020408040E1F7BB
S1130220000060E070E882EA94E40E94550099E9D5
S113023029E581E0915020408040E1F7000060E032
S113024070E889E894E40E94550099E929E581E081
S1130250915020408040E1F7000060E070E889E8B8
S113026094E40E94550099E929E581E091502040E9
S11302708040E1F7000060E070E889E894E40E94BF
S1130280550099E929E581E0915020408040E1F74B
S1130290000060E070E086E994E40E94550099E96A
S11302A029E581E0915020408040E1F7000000E81A
S11302B010E060E070E086E994E40E94550091EE5D
S11302C02AED80E0915020408040E1F784E19CE0F9
S11302D00197F1F700C0000060E070E88BEB94E454
S11302E00E94550086E69EE00197F1F700008FE337
S11302F09DE00197F1F70000C0E2D0E060E070EA11
S11303008BED94E40E9455008CEF93E20197F1F792
S1130310000060E070E684EF94E40E9455008FEFE3
S113032093E20197F1F700C00000219739F7C0E28A
S1130330D0E060E070ED8CE095E40E9455008CEF15
S113034093E20197F1F7000060E070EE88EC94E42A
S11303500E9455008FEF93E20197F1F700C000006F
S1130360219739F7C0E2D0E060E070EC8EED94E4C0
S11303700E9455008FEF93E20197F1F700C000004F
S113038060E070EA80ED94E40E9455008CEF93E203
S11303900197F1F70000219739F7C0E2D0E060E05F
S11303A070EA8BED94E40E9455008FEF93E201977D
S11303B0F1F700C0000060E070E684EF94E40E946E
S11303C055008CEF93E20197F1F70000219739F77C
S11303D00150110909F06DCFFFCF0E9401020C9466
S11303E0AC020E94A50258F00E949E0240F029F43B
S11303F05F3F29F00C94950251110C94E0020C9487
S11304009B020E94BD0268F39923B1F3552391F333
S1130410951B550BBB27AA2762177307840738F06F
S11304209F5F5F4F220F331F441FAA1FA9F335D0CC
S11304300E2E3AF0E0E832D091505040E695001C80
S1130440CAF72BD0FE2F29D0660F771F881FBB1F3A
S1130450261737074807AB07B0E809F0BB0B802D18
S1130460BF01FF2793585F4F3AF09E3F510578F044
S11304700C9495020C94E0025F3FE4F3983ED4F3AD
S1130480869577956795B795F7959F5FC9F7880F18
S1130490911D9695879597F90895E1E0660F771F6A
S11304A0881FBB1F621773078407BA0720F0621BFB
S11304B0730B840BBA0BEE1F88F7E09508950E9426
S11304C066026894B1110C94E00208950E94C5027A
S11304D088F09F5798F0B92F9927B751B0F0E1F001
S11304E0660F771F881F991F1AF0BA95C9F714C0B1
S11304F0B13091F00E94DF02B1E008950C94DF0264
S1130500672F782F8827B85F39F0B93FCCF38695E9
S113051077956795B395D9F73EF490958095709546
S113052061957F4F8F4F9F4F089597F99F6780E89C
S113053070E060E008959FEF80EC089500240A9431
S11305401616170618060906089500240A941216AA
S11305501306140605060895092E0394000C11F4DD
S1130560882352F0BB0F40F4BF2B11F460FF04C08A
S11305706F5F7F4F8F4F9F4F089557FD9058440FE3
S1130580551F59F05F3F71F04795880F97FB991FEE
S113059061F09F3F79F087950895121613061406AB
S11305A0551FF2CF4695F1DF08C016161706180638
S11305B0991FF1CF86957105610508940895E89413
S11305C0BB2766277727CB0197F908950E94F90284
S11305D00C94AC020E949E0238F00E94A50220F006
S11305E0952311F00C9495020C949B0211240C9405
S11305F0E0020E94BD0270F3959FC1F3950F50E095
S1130600551F629FF001729FBB27F00DB11D639FC0
S1130610AA27F00DB11DAA1F649F6627B00DA11D66
S1130620661F829F2227B00DA11D621F739FB00D0C
S1130630A11D621F839FA00D611D221F749F33277C
S1130640A00D611D231F849F600D211D822F762F15
S11306506A2F11249F5750409AF0F1F088234AF0F2
S1130660EE0FFF1FBB1F661F771F881F915050405E
S1130670A9F79E3F510580F00C9495020C94E0027A
S11306805F3FE4F3983ED4F3869577956795B795E5
S1130690F795E7959F5FC1F7FE2B880F911D9695FF
S10D06A0879597F90895F894FFCFA9
S9030000FC
