S01A000050726F6772616D6D696E672D4144393833332E73726563FE
S11300000C942A000C9434000C9434000C943400A6
S11300100C9434000C9434000C9434000C9434008C
S11300200C9434000C9434000C9434000C9434007C
S11300300C9434000C9434000C9434000C9434006C
S11300400C9434000C9434000C9434000C9434005C
S11300500C94340011241FBECFE5D8E0DEBFCDBF21
S11300600E94A5000C94A4030C94000081EA87BBB1
S113007081E188BB89ED8DB9089510BC8FE589B9FC
S113008088E18AB98EE880BD08951BBA8130910554
S113009039F08230910531F0892B29F4D89A0895EA
S11300A0D99A0895DA9A08958FB9779BFECF089567
S11300B0CF93C82FC098892F0E9454008C2F0E9480
S11300C05400C09ACF910895CF92DF92EF92FF929D
S11300D0CF93DF9320E030E040E85DE40E943703F3
S11300E020E23CEB4EEB5BE40E943E020E94B00235
S11300F06B017C01CC2420ECD2222FE0F2220B2EC7
S1130100BEE0F594E794D794C794BA95D1F7B02D8F
S1130110EB01DF7380E091E20E945800CE0190640D
S11301200E945800C60190640E94580080E090EC40
S11301300E94580080E090E20E945800DF91CF9125
S1130140FF90EF90DF90CF9008950E943D000E94B1
S1130150360087E08ABB1BBA80E091E00E94580019
S113016060E070E88DEE94E40E9464002FEF8FE766
S11301709DE0215080409040E1F700C0000080E005
S113018090E00E94450060E070E086E994E40E94FB
S113019064008FEF9FE80197F1F700C0000081E051
S11301A090E00E94450060E070E88DEE94E40E94C7
S11301B064009FEF2FE78DE0915020408040E1F7ED
S11301C000C0000082E090E00E94450060E070E022
S11301D086E994E40E94640099E929E581E091505C
S11301E020408040E1F7000080E090E00E9445005C
S11301F060E070E889E894E40E94640099E929E5E4
S113020081E0915020408040E1F7000081E090E0DF
S11302100E94450060E070E889E894E40E9464006C
S113022099E929E581E0915020408040E1F7000000
S113023082E090E00E94450060E070E882EA94E485
S11302400E94640099E929E581E0915020408040B2
S1130250E1F7000060E070E882EA94E40E94640040
S113026099E929E581E0915020408040E1F70000C0
S113027060E070E882EA94E40E94640099E929E568
S113028081E0915020408040E1F7000060E070E898
S113029089E894E40E94640099E929E581E0915099
S11302A020408040E1F7000060E070E889E894E4D1
S11302B00E94640099E929E581E091502040804042
S11302C0E1F7000060E070E889E894E40E946400CB
S11302D099E929E581E0915020408040E1F7000050
S11302E060E070E086E994E40E94640099E929E5FD
S11302F081E0915020408040E1F7000000E810E0E8
S113030060E070E086E994E40E9464009CE824EED6
S113031080E0915020408040E1F700C060E070E848
S11303208BEB94E40E94640083EA9BE10197F1F76C
S113033000C0CBE6D0E068E278EA8BED94E40E945A
S1130340640089E595E00197F1F76DED7CE584EFB4
S113035094E40E94640089E595E00197F1F764E173
S113036074E98BEC94E40E94640089E595E00197BC
S1130370F1F7219701F782E59FE00197F1F700007B
S1130380CBE6D0E060E070ED8CE095E40E94640080
S113039089E595E00197F1F760E070EE88EC94E46C
S11303A00E94640089E595E00197F1F760E070EA46
S11303B086EE94E40E94640089E595E00197F1F7E4
S11303C0219701F782E59FE00197F1F70000CBE662
S11303D0D0E060E070EC8EED94E40E94640089E566
S11303E095E00197F1F760E070EA80ED94E40E94F3
S11303F0640089E595E00197F1F760E070ED8CE029
S113040095E40E94640089E595E00197F1F721974E
S113041001F782E59FE00197F1F70000CBE6D0E019
S113042060E070EA8BED94E40E94640089E595E055
S11304300197F1F760E070E684EF94E40E946400B1
S113044089E595E00197F1F760E070EA8BEC94E4BC
S11304500E94640089E595E00197F1F7219701F77F
S113046082E59FE00197F1F700000150110909F0BE
S113047047CF80E090E00E945800FFCF0E945202D4
S11304800C94FD020E94F60258F00E94EF0240F024
S113049029F45F3F29F00C94E60251110C943103C6
S11304A00C94EC020E940E0368F39923B1F35523D4
S11304B091F3951B550BBB27AA2762177307840773
S11304C038F09F5F5F4F220F331F441FAA1FA9F309
S11304D035D00E2E3AF0E0E832D091505040E695F7
S11304E0001CCAF72BD0FE2F29D0660F771F881F58
S11304F0BB1F261737074807AB07B0E809F0BB0B4B
S1130500802DBF01FF2793585F4F3AF09E3F51055E
S113051078F00C94E6020C9431035F3FE4F3983EC8
S1130520D4F3869577956795B795F7959F5FC9F747
S1130530880F911D9695879597F90895E1E0660FC8
S1130540771F881FBB1F621773078407BA0720F041
S1130550621B730B840BBA0BEE1F88F7E0950895AA
S11305600E94B7026894B1110C94310308950E945B
S1130570160388F09F5798F0B92F9927B751B0F018
S1130580E1F0660F771F881F991F1AF0BA95C9F713
S113059014C0B13091F00E943003B1E008950C947E
S11305A03003672F782F8827B85F39F0B93FCCF331
S11305B0869577956795B395D9F73EF49095809590
S11305C0709561957F4F8F4F9F4F089597F99F675F
S11305D080E870E060E008959FEF80EC08950024C7
S11305E00A941616170618060906089500240A9494
S11305F012161306140605060895092E0394000C1A
S113060011F4882352F0BB0F40F4BF2B11F460FFA8
S113061004C06F5F7F4F8F4F9F4F089557FD9058D1
S1130620440F551F59F05F3F71F04795880F97FBB2
S1130630991F61F09F3F79F087950895121613066C
S11306401406551FF2CF4695F1DF08C0161617069B
S11306501806991FF1CF86957105610508940895D0
S1130660E894BB2766277727CB0197F908950E9462
S11306704A030C94FD020E94EF0238F00E94F60235
S113068020F0952311F00C94E6020C94EC02112452
S11306900C9431030E940E0370F3959FC1F3950FE0
S11306A050E0551F629FF001729FBB27F00DB11DF2
S11306B0639FAA27F00DB11DAA1F649F6627B00D82
S11306C0A11D661F829F2227B00DA11D621F739F6B
S11306D0B00DA11D621F839FA00D611D221F749F79
S11306E03327A00D611D231F849F600D211D822FC0
S11306F0762F6A2F11249F5750409AF0F1F08823E7
S11307004AF0EE0FFF1FBB1F661F771F881F915013
S11307105040A9F79E3F510580F00C94E6020C94DA
S113072031035F3FE4F3983ED4F38695779567955C
S1130730B795F795E7959F5FC1F7FE2B880F911D3D
S10F07409695879597F90895F894FFCFDB
S9030000FC
