:100000000C942B000C9453000C9453000C9453004C
:100010000C9453000C9453000C9453000C94530014
:100020000C9453000C9462020C9453000C945300F3
:100030000C94A3020C9453000C9453000C945300A2
:100040000C9453000C9453000C9453000C945300E4
:100050000C945300A40211241FBECFE5D8E0DEBFEC
:10006000CDBF10E0A0E6B0E0ECE2F9E002C0059000
:100070000D92A436B107D9F720E0A4E6B0E001C0A4
:100080001D92AE36B207E1F710E0CBE2D0E004C03B
:100090002197FE010E948E04CA32D107C9F70E943F
:1000A000B5000C9494040C94000081EA87BB81E1B4
:1000B00088BB89ED8DB9089510BC8FE589B988E1B9
:1000C0008AB98EE880BD08958FB9779BFECF0895D9
:1000D000CF93C82FC098892F0E9464008C2F0E9454
:1000E0006400C09ACF910895CF92DF92EF92FF9271
:1000F000CF93DF9320E030E040E85DE40E942104EC
:1001000020E23CEB4EEB5BE40E9428030E949A0342
:100110006B017C01CC2420ECD2222FE0F2220B2EAA
:10012000BEE0F594E794D794C794BA95D1F7B02D73
:10013000EB01DF7380E091E20E946800CE019064E1
:100140000E946800C60190640E94680080E090EC04
:100150000E94680080E090E20E946800DF91CF91E9
:10016000FF90EF90DF90CF9008950E945C000E9476
:10017000550087E08ABB1FBC80E091E00E946800C8
:1001800060E070E88DEE94E40E9474002FEF8FE73A
:100190009DE0215080409040E1F700C0000060E009
:1001A00070E086E994E40E9474008FEF9FE8019765
:1001B000F1F700C0000060E070E88DEE94E40E946A
:1001C00074009FEF2FE78DE0915020408040E1F7D1
:1001D00000C0000060E070E086E994E40E947400D2
:1001E00099E929E581E0915020408040E1F7000045
:1001F00060E070E889E894E40E94740099E929E5D8
:1002000081E0915020408040E1F7000060E070E81C
:1002100089E894E40E94740099E929E581E091500D
:1002200020408040E1F7000060E070E882EA94E45A
:100230000E94740099E929E581E0915020408040B6
:10024000E1F7000060E070E882EA94E40E94740044
:1002500099E929E581E0915020408040E1F70000D4
:1002600060E070E882EA94E40E94740099E929E56C
:1002700081E0915020408040E1F7000060E070E8AC
:1002800089E894E40E94740099E929E581E091509D
:1002900020408040E1F7000060E070E889E894E4E5
:1002A0000E94740099E929E581E091502040804046
:1002B000E1F7000060E070E889E894E40E947400CF
:1002C00099E929E581E0915020408040E1F7000064
:1002D00060E070E086E994E40E94740099E929E501
:1002E00081E0915020408040E1F70000C0E8D0E07C
:1002F0000F2EF7EACF2EF3E7DF2EFBEDEF2EF4E41F
:10030000FF2EF02D0EEF1FEF0F2EF0EB4F2EFEEC19
:100310005F2EFCE06F2EF5E47F2EF02D0F2EF0EF18
:100320008F2EFFED9F2EFEEDAF2EF4E4BF2EF02DAD
:1003300060E070E086E994E40E94740091EE2AED9A
:1003400080E0915020408040E1F784E19CE00197FB
:10035000F1F700C0000060E070E88BEB94E40E94CD
:10036000740086E69EE00197F1F700008FE39DE0C0
:100370000197F1F700001092650010926400C0929E
:100380006600D0926700E0926800F092690078946D
:100390008EB581608EBD89B7846089BF1DBD0CBDDF
:1003A000809164009091650018161906CCF7F894B6
:1003B00089B78F7E89BF1EBC1092650010926400C1
:1003C00040926600509267006092680070926900E7
:1003D00078948EB581608EBD89B7846089BF609145
:1003E0006A0070916B0080916C0090916D000E948A
:1003F000A1037DBD6CBD80916400909165001816CD
:100400001906CCF7F89489B78F7E89BF1EBC10926D
:100410006500109264008092660090926700A0923E
:100420006800B092690078948EB581608EBD89B7FE
:10043000846089BF60916A0070916B0080916C004C
:1004400090916D000E94A1037DBD6CBD8091640000
:100450009091650018161906CCF7F89489B78F7E2D
:1004600089BF1EBC1092650010926400C0926600A5
:10047000D0926700E0926800F092690078948EB59F
:1004800081608EBD89B7846089BF60916A00709178
:100490006B0080916C0090916D000E94A1037DBD66
:1004A0006CBD80916400909165000297D4F3F8943C
:1004B00089B78F7E89BF1EBC219709F039CF1BBA3F
:1004C000D89AFFCF1F920F920FB60F9211242F933D
:1004D0003F934F935F936F937F938F939F93AF93CC
:1004E000BF93EF93FF9360916A0070916B008091CE
:1004F0006C0090916D000E94A1037DBD6CBD809148
:10050000640090916500019690936500809364006B
:100510006091660070916700809168009091690019
:100520000E947400FF91EF91BF91AF919F918F91C5
:100530007F916F915F914F913F912F910F900FBEDF
:100540000F901F90189518952091600030916100D0
:10055000409162005091630060E070E080E897E4B1
:100560000E94BB0260936A0070936B0080936C00E2
:1005700090936D0008955058BB27AA270E94D3027C
:100580000C94E7030E94D90338F00E94E00320F0A6
:1005900039F49F3F19F426F40C94D6030EF4E09539
:1005A000E7FB0C94D003E92F0E94F80358F3BA1725
:1005B000620773078407950720F079F4A6F50C9479
:1005C0001A040EF4E0950B2EBA2FA02D0B01B901E1
:1005D00090010C01CA01A0011124FF27591B99F0B9
:1005E000593F50F4503E68F11A16F040A22F232FC5
:1005F000342F4427585FF3CF469537952795A79515
:10060000F0405395C9F77EF41F16BA0B620B730BBB
:10061000840BBAF09150A1F0FF0FBB1F661F771F2C
:10062000881FC2F70EC0BA0F621F731F841F48F4E1
:10063000879577956795B795F7959E3F08F0B0CF6A
:100640009395880F08F09927EE0F97958795089551
:100650000E943C030C94E7030E94E00358F00E94C0
:10066000D90340F029F45F3F29F00C94D0035111D5
:100670000C941B040C94D6030E94F80368F399238E
:10068000B1F3552391F3951B550BBB27AA2762178E
:100690007307840738F09F5F5F4F220F331F441F9B
:1006A000AA1FA9F335D00E2E3AF0E0E832D09150CF
:1006B0005040E695001CCAF72BD0FE2F29D0660FBC
:1006C000771F881FBB1F261737074807AB07B0E8FF
:1006D00009F0BB0B802DBF01FF2793585F4F3AF005
:1006E0009E3F510578F00C94D0030C941B045F3F9F
:1006F000E4F3983ED4F3869577956795B795F7958B
:100700009F5FC9F7880F911D9695879597F9089572
:10071000E1E0660F771F881FBB1F6217730784070E
:10072000BA0720F0621B730B840BBA0BEE1F88F71D
:10073000E09508950E94A1036894B1110C941B04E4
:1007400008950E94000488F09F5798F0B92F9927C8
:10075000B751B0F0E1F0660F771F881F991F1AF0AC
:10076000BA95C9F714C0B13091F00E941A04B1E0F3
:1007700008950C941A04672F782F8827B85F39F0F2
:10078000B93FCCF3869577956795B395D9F73EF445
:1007900090958095709561957F4F8F4F9F4F0895ED
:1007A00097F99F6780E870E060E008959FEF80EC24
:1007B000089500240A9416161706180609060895C7
:1007C00000240A9412161306140605060895092E2D
:1007D0000394000C11F4882352F0BB0F40F4BF2B9C
:1007E00011F460FF04C06F5F7F4F8F4F9F4F0895DC
:1007F00057FD9058440F551F59F05F3F71F04795D2
:10080000880F97FB991F61F09F3F79F087950895B6
:10081000121613061406551FF2CF4695F1DF08C0D5
:10082000161617061806991FF1CF869571056105F2
:1008300008940895E894BB2766277727CB0197F99A
:1008400008950E9434040C94E7030E94D90338F001
:100850000E94E00320F0952311F00C94D0030C9437
:10086000D60311240C941B040E94F80370F3959F87
:10087000C1F3950F50E0551F629FF001729FBB2797
:10088000F00DB11D639FAA27F00DB11DAA1F649F33
:100890006627B00DA11D661F829F2227B00DA11DE6
:1008A000621F739FB00DA11D621F839FA00D611D6C
:1008B000221F749F3327A00D611D231F849F600D8D
:1008C000211D822F762F6A2F11249F5750409AF0B6
:1008D000F1F088234AF0EE0FFF1FBB1F661F771F42
:1008E000881F91505040A9F79E3F510580F00C940D
:1008F000D0030C941B045F3FE4F3983ED4F3869539
:1009000077956795B795F795E7959F5FC1F7FE2BAC
:10091000880F911D9695879597F90895EE0FFF1F03
:0C0920000590F491E02D0994F894FFCFAD
:04092C0000B8E845E2
:00000001FF
