:100000000C942B000C9453000C9453000C9453004C
:100010000C9453000C9453000C9453000C94530014
:100020000C9453000C94FF020C9453000C94530056
:100030000C9472030C9453000C9453000C945300D2
:100040000C9453000C9453000C9453000C945300E4
:100050000C945300730311241FBECFE5D8E0DEBF1C
:10006000CDBF10E0A0E6B0E0E2EFFBE002C00590FB
:100070000D92A236B107D9F720E0A2E6B0E001C0A8
:100080001D92AE36B207E1F710E0CBE2D0E004C03B
:100090002197FE010E94F105CA32D107C9F70E94DB
:1000A0002F010C94F7050C94000081EA87BB81E1D5
:1000B00088BB89ED8DB9089510BC8FE589B988E1B9
:1000C0008AB98EE880BD08958FB9779BFECF0895D9
:1000D000CF93C82FC098892F0E9464008C2F0E9454
:1000E0006400C09ACF910895CF92DF92EF92FF9271
:1000F0000F931F93CF93DF938A0120E030E040E815
:100100005DE40E94840520E23CEB4EEB5BE40E9440
:10011000EC030E945E046B017C01CC2420ECD22213
:100120002FE0F2220B2EBEE0F594E794D794C7940B
:10013000BA95D1F7B02DEB01DF7380E091E20E9418
:100140006800CE0190640E946800C60190640E941D
:100150006800C8019F70906C0E94680080E090E287
:100160000E946800DF91CF911F910F91FF90EF9057
:10017000DF90CF9008954F925F926F927F928F920F
:100180009F92AF92BF92CF92DF92EF92FF920F9326
:100190001F93CF93DF9300D000D0CDB7DEB72B01F4
:1001A0003C0149015A016701780160E070E080E894
:1001B0009FE30E94EC0369837A838B839C8320E016
:1001C00034E244E759E4C701B6010E94EC032981F7
:1001D0003A814B815C810E94DC049B01AC010E944E
:1001E000800320ED3FE049E450E40E948405A5012E
:1001F00094010E9484056B017C012CE839EF42E2F6
:1002000054E4C301B2010E94EC039B01AC01C7019D
:10021000B6010E94800320E030E040E055E40E94F7
:10022000840520ED3FE049E450E40E94EC030E9485
:100230006504CB010F900F900F900F90DF91CF913D
:100240001F910F91FF90EF90DF90CF90BF90AF90F4
:100250009F908F907F906F905F904F9008950E9435
:100260005C000E94550087E08ABB1FBC1BBA80E07F
:1002700091E00E94680080E090E8ADEEB4E48093E5
:10028000680090936900A0936A00B0936B0080E0CF
:1002900091E00E94680040E050E060E070E88DEE80
:1002A00094E40E9474002FEF8FE79DE0215080407E
:1002B0009040E1F700C0000040E050E060E070E0F6
:1002C00086E994E40E9474008FEF9FE80197F1F7AC
:1002D00000C0000040E050E060E070E88DEE94E483
:1002E0000E9474009FEF2FE78DE0915020408040E6
:1002F000E1F700C0000040E050E060E070E086E917
:1003000094E40E94740099E929E581E0915020402D
:100310008040E1F7000040E050E060E070E889E8EC
:1003200094E40E94740099E929E581E0915020400D
:100330008040E1F7000040E050E060E070E889E8CC
:1003400094E40E94740099E929E581E091502040ED
:100350008040E1F7000040E050E060E070E882EAB1
:1003600094E40E94740099E929E581E091502040CD
:100370008040E1F7000040E050E060E070E882EA91
:1003800094E40E94740099E929E581E091502040AD
:100390008040E1F7000040E050E060E070E882EA71
:1003A00094E40E94740099E929E581E0915020408D
:1003B0008040E1F7000040E050E060E070E889E84C
:1003C00094E40E94740099E929E581E0915020406D
:1003D0008040E1F7000040E050E060E070E889E82C
:1003E00094E40E94740099E929E581E0915020404D
:1003F0008040E1F7000040E050E060E070E889E80C
:1004000094E40E94740099E929E581E0915020402C
:100410008040E1F7000040E050E060E070E086E9F5
:1004200094E40E94740099E929E581E0915020400C
:100430008040E1F70000C0E8D0E00F2EF7EACF2EB1
:10044000F3E7DF2EFBEDEF2EF4E4FF2EF02D0EEFA1
:100450001FEF0F2EF0EB4F2EFEEC5F2EFCE06F2E09
:10046000F5E47F2EF02D0F2EF0EF8F2EFFED9F2E57
:10047000FEEDAF2EF4E4BF2EF02D40E050E060E042
:1004800070E086E994E40E94740091EE2AED80E029
:10049000915020408040E1F784E19CE00197F1F722
:1004A00000C0000040E050E060E070E88BEB94E4B6
:1004B0000E94740086E69EE00197F1F700008FE34A
:1004C0009DE00197F1F7000010926700109266001E
:1004D000C0926800D0926900E0926A00F0926B00CE
:1004E00078948EB581608EBD89B7846089BF1DBD4B
:1004F0000CBD809166009091670080349140CCF3F0
:10050000F89489B78F7E89BF1EBC10926700109245
:100510006600409268005092690060926A00709292
:100520006B0078948EB581608EBD89B7846089BF79
:1005300080916C0090916D009DBD8CBD8091660096
:100540009091670080349140CCF3F89489B78F7E06
:1005500089BF1EBC109267001092660080926800EE
:1005600090926900A0926A00B0926B0078948EB568
:1005700081608EBD89B7846089BF80916C00909145
:100580006D009DBD8CBD80916600909167008034A8
:100590009140CCF3F89489B78F7E89BF1EBC10922E
:1005A000670010926600C0926800D0926900E092E5
:1005B0006A00F0926B0078948EB581608EBD89B729
:1005C000846089BF80916C0090916D009DBD8CBD51
:1005D000809166009091670081349140CCF3F8944B
:1005E00089B78F7E89BF1EBC219709F046CF40E0B6
:1005F00050E060E070E0CB010E947400FFCF1F92DA
:100600000F920FB60F9211248F929F92AF92BF92CA
:10061000EF92FF920F931F932F933F934F935F930C
:100620006F937F938F939F93AF93BF93EF93FF93BA
:1006300080916C0090916D009DBD8CBD8091660095
:100640009091670001969093670080936600809078
:10065000680090906900A0906A00B0906B00609173
:1006600064007091650080E090E00E949404E12CA9
:10067000F12C05E014E4A50194010E94BB009093C5
:10068000630080936200409162005091630060912A
:1006900068007091690080916A0090916B000E94DF
:1006A0007400809162009091630090936500809344
:1006B0006400FF91EF91BF91AF919F918F917F91D6
:1006C0006F915F914F913F912F911F910F91FF90EB
:1006D000EF90BF90AF909F908F900F900FBE0F90B4
:1006E0001F901895189580916000909161009195E8
:1006F0008195910990936D0080936C0008955058F6
:10070000BB27AA270E9497030C944A050E943C0528
:1007100038F00E94430520F039F49F3F19F426F485
:100720000C9439050EF4E095E7FB0C942505E92FB0
:100730000E945B0558F3BA17620773078407950791
:1007400020F079F4A6F50C947D050EF4E0950B2EBF
:10075000BA2FA02D0B01B90190010C01CA01A00113
:100760001124FF27591B99F0593F50F4503E68F16E
:100770001A16F040A22F232F342F4427585FF3CFAF
:10078000469537952795A795F0405395C9F77EF480
:100790001F16BA0B620B730B840BBAF09150A1F0C9
:1007A000FF0FBB1F661F771F881FC2F70EC0BA0F4F
:1007B000621F731F841F48F4879577956795B795D7
:1007C000F7959E3F08F0B0CF9395880F08F09927D2
:1007D000EE0F9795879508950E9400040C944A05A2
:1007E0000E94430558F00E943C0540F029F45F3F09
:1007F00029F00C94250551110C947E050C943905B3
:100800000E945B0568F39923B1F3552391F3951B7F
:10081000550BBB27AA2762177307840738F09F5F21
:100820005F4F220F331F441FAA1FA9F335D00E2E8E
:100830003AF0E0E832D091505040E695001CCAF7FB
:100840002BD0FE2F29D0660F771F881FBB1F2617BE
:1008500037074807AB07B0E809F0BB0B802DBF0195
:10086000FF2793585F4F3AF09E3F510578F00C9464
:1008700025050C947E055F3FE4F3983ED4F38695FE
:1008800077956795B795F7959F5FC9F7880F911D85
:100890009695879597F90895E1E0660F771F881F71
:1008A000BB1F621773078407BA0720F0621B730B24
:1008B000840BBA0BEE1F88F7E09508950E9465043B
:1008C0006894B1110C947E0508950E94630588F028
:1008D0009F5798F0B92F9927B751B0F0E1F0660F04
:1008E000771F881F991F1AF0BA95C9F714C0B13045
:1008F00091F00E947D05B1E008950C947D05672F6D
:10090000782F8827B85F39F0B93FCCF38695779573
:100910006795B395D9F73EF490958095709561955C
:100920007F4F8F4F9F4F0895E89409C097FB3EF487
:1009300090958095709561957F4F8F4F9F4F99232C
:10094000A9F0F92F96E9BB279395F69587957795AA
:100950006795B795F111F8CFFAF4BB0F11F460FF6A
:100960001BC06F5F7F4F8F4F9F4F16C0882311F0C2
:1009700096E911C0772321F09EE8872F762F05C0D6
:10098000662371F096E8862F70E060E02AF09A9571
:10099000660F771F881FDAF7880F9695879597F966
:1009A00008950E943C0520F019F00E94430550F480
:1009B0000C9439050C947E05E92F0E945B0588F3A1
:1009C0005523B1F3E7FB6217730784079507A8F176
:1009D00089F3E92FFF2788232AF03197660F771FC5
:1009E000881FDAF7952F5527442332F09150504055
:1009F000220F331F441FD2F7BB27E91BF50B621BE5
:100A0000730B840BB109B1F222F4620F731F841FC0
:100A1000B11D31972AF0660F771F881FBB1FEFCFDC
:100A20009150504062F041F0882332F0660F771FFA
:100A3000881F91505040C1F793950C942B058695D3
:100A4000779567959F5FD9F7F7CF97F99F6780E80C
:100A500070E060E008959F3F31F0915020F4879559
:100A600077956795B795880F911D9695879597F916
:100A700008959FEF80EC089500240A941616170637
:100A800018060906089500240A941216130614067F
:100A900005060895092E0394000C11F4882352F0E2
:100AA000BB0F40F4BF2B11F460FF04C06F5F7F4F9A
:100AB0008F4F9F4F089557FD9058440F551F59F081
:100AC0005F3F71F04795880F97FB991F61F09F3F3B
:100AD00079F087950895121613061406551FF2CF64
:100AE0004695F1DF08C0161617061806991FF1CFB4
:100AF00086957105610508940895E894BB276627DB
:100B00007727CB0197F908950E9497050C944A0521
:100B10000E943C0538F00E94430520F0952311F017
:100B20000C9425050C94390511240C947E050E9423
:100B30005B0570F3959FC1F3950F50E0551F629FC1
:100B4000F001729FBB27F00DB11D639FAA27F00D26
:100B5000B11DAA1F649F6627B00DA11D661F829F4D
:100B60002227B00DA11D621F739FB00DA11D621F32
:100B7000839FA00D611D221F749F3327A00D611D4F
:100B8000231F849F600D211D822F762F6A2F112431
:100B90009F5750409AF0F1F088234AF0EE0FFF1F64
:100BA000BB1F661F771F881F91505040A9F79E3FBB
:100BB000510580F00C9425050C947E055F3FE4F30D
:100BC000983ED4F3869577956795B795F795E79511
:100BD0009F5FC1F7FE2B880F911D9695879597F91A
:100BE0000895EE0FFF1F0590F491E02D0994F894FD
:020BF000FFCF35
:020BF200171DCD
:00000001FF
