S01A000050726F6772616D6D696E672D4144393833332E73726563FE
S11300000C942B000C9453000C9453000C94530048
S11300100C9453000C9453000C9453000C94530010
S11300200C9453000C9453000C9453000C94530000
S11300300C9453000C9453000C9453000C945300F0
S11300400C9453000C9453000C9453000C945300E0
S11300500C945300D20011241FBECFE5D8E0DEBFBC
S1130060CDBF10E0A0E6B0E0E8E9F4E002C00590FE
S11300700D92A236B107D9F720E0A2E6B0E001C0A4
S11300801D92A436B207E1F710E0CBE2D0E004C041
S11300902197FE010E944402CA32D107C9F70E9487
S11300A0BB000C944A020C94000081EA87BB81E1F6
S11300B088BB89ED8DB9089510BC8FE589B988E1B5
S11300C08AB98EE880BD08958FB9779BFECF0895D5
S11300D0CF93C82FC098892F0E9464008C2F0E9450
S11300E06400C09ACF910895CF92DF92EF92FF926D
S11300F00F931F93CF93DF938A0120E030E040E811
S11301005DE40E94D70120E23CEB4EEB5BE40E94ED
S1130110DE000E9450016B017C01CC2420ECD22231
S11301202FE0F2220B2EBEE0F594E794D794C79407
S1130130BA95D1F7B02DEB01DF7380E091E20E9414
S11301406800CE0190640E946800C60190640E9419
S11301506800C8019F70906C0E94680080E090E283
S11301600E946800DF91CF911F910F91FF90EF9053
S1130170DF90CF9008950E945C000E94550087E0B4
S11301808ABB1FBC1BBA80E091E00E94680040E07B
S113019050E060E070E88BE395E40E94740080E036
S11301A090E008958091600090916100919581950F
S11301B09109909363008093620008950E94F20075
S11301C00C949D010E94960158F00E948F0140F00A
S11301D029F45F3F29F00C94860151110C94D1014C
S11301E00C948C010E94AE0168F39923B1F355235A
S11301F091F3951B550BBB27AA2762177307840736
S113020038F09F5F5F4F220F331F441FAA1FA9F3CB
S113021035D00E2E3AF0E0E832D091505040E695B9
S1130220001CCAF72BD0FE2F29D0660F771F881F1A
S1130230BB1F261737074807AB07B0E809F0BB0B0D
S1130240802DBF01FF2793585F4F3AF09E3F510521
S113025078F00C9486010C94D1015F3FE4F3983E4E
S1130260D4F3869577956795B795F7959F5FC9F70A
S1130270880F911D9695879597F90895E1E0660F8B
S1130280771F881FBB1F621773078407BA0720F004
S1130290621B730B840BBA0BEE1F88F7E09508956D
S11302A00E9457016894B1110C94D10108950E94E1
S11302B0B60188F09F5798F0B92F9927B751B0F03D
S11302C0E1F0660F771F881F991F1AF0BA95C9F7D6
S11302D014C0B13091F00E94D001B1E008950C94A3
S11302E0D001672F782F8827B85F39F0B93FCCF356
S11302F0869577956795B395D9F73EF49095809553
S1130300709561957F4F8F4F9F4F089597F99F6721
S113031080E870E060E008959FEF80EC0895002489
S11303200A941616170618060906089500240A9456
S113033012161306140605060895092E0394000CDC
S113034011F4882352F0BB0F40F4BF2B11F460FF6B
S113035004C06F5F7F4F8F4F9F4F089557FD905894
S1130360440F551F59F05F3F71F04795880F97FB75
S1130370991F61F09F3F79F087950895121613062F
S11303801406551FF2CF4695F1DF08C0161617065E
S11303901806991FF1CF8695710561050894089593
S11303A0E894BB2766277727CB0197F908950E9425
S11303B0EA010C949D010E948F0138F00E9496017D
S11303C020F0952311F00C9486010C948C011124D7
S11303D00C94D1010E94AE0170F3959FC1F3950F67
S11303E050E0551F629FF001729FBB27F00DB11DB5
S11303F0639FAA27F00DB11DAA1F649F6627B00D45
S1130400A11D661F829F2227B00DA11D621F739F2D
S1130410B00DA11D621F839FA00D611D221F749F3B
S11304203327A00D611D231F849F600D211D822F82
S1130430762F6A2F11249F5750409AF0F1F08823A9
S11304404AF0EE0FFF1FBB1F661F771F881F9150D6
S11304505040A9F79E3F510580F00C9486010C94FE
S1130460D1015F3FE4F3983ED4F386957795679581
S1130470B795F795E7959F5FC1F7FE2B880F911D00
S11304809695879597F90895EE0FFF1F0590F491BF
S10B0490E02D0994F894FFCF5C
S1050498FFFF60
S9030000FC
