S01A000050726F6772616D6D696E672D4144393833332E73726563FE
S11300000C942B000C9453000C9453000C94530048
S11300100C9453000C9453000C9453000C94B202AF
S11300200C9453000C9453000C9453000C94530000
S11300300C9476030C9453000C9453000C945300CA
S11300400C9453000C9453000C9453000C945300E0
S11300500C945300770311241FBECFE5D8E0DEBF14
S1130060CDBF10E0A0E6B0E0ECEBFEE002C00590EE
S11300700D92A236B107D9F720E0A2E6B0E001C0A4
S11300801D92A039B207E1F710E0CBE2D0E004C042
S11300902197FE010E945607CA32D107C9F70E9470
S11300A02F010C945C070C94000081EA87BB81E16A
S11300B088BB89ED8DB9089510BC8FE589B988E1B5
S11300C08AB98EE880BD08958FB9779BFECF0895D5
S11300D0CF93C82FC098892F0E9464008C2F0E9450
S11300E06400C09ACF910895CF92DF92EF92FF926D
S11300F00F931F93CF93DF938A0120E030E040E811
S11301005DE40E94E90620E23CEB4EEB5BE40E94D6
S113011051050E94C3056B017C01CC2420ECD22242
S11301202FE0F2220B2EBEE0F594E794D794C79407
S1130130BA95D1F7B02DEB01DF7380E091E20E9414
S11301406800CE0190640E946800C60190640E9419
S11301506800C8019F70906C0E94680080E090E283
S11301600E946800DF91CF911F910F91FF90EF9053
S1130170DF90CF9008954F925F926F927F928F920B
S11301809F92AF92BF92CF92DF92EF92FF920F9322
S11301901F93CF93DF9300D000D0CDB7DEB72B01F0
S11301A03C0149015A016701780160E070E080E890
S11301B09FE30E94510569837A838B839C8320E0AB
S11301C034E244E759E4C701B6010E94510529818C
S11301D03A814B815C810E9441069B01AC010E94E3
S11301E0E50420ED3FE049E450E40E94E906A5015E
S11301F094010E94E9066B017C012CE839EF42E28C
S113020054E4C301B2010E9451059B01AC01C70132
S1130210B6010E94E50420E030E040E055E40E948D
S1130220E90620ED3FE049E450E40E9451050E94B4
S1130230CA05CB010F900F900F900F90DF91CF91D3
S11302401F910F91FF90EF90DF90CF90BF90AF90F0
S11302509F908F907F906F905F904F9008950E9431
S11302605C000E94550087E08ABB1FBC1BBA83E078
S113027083BF80E091E00E9468002FEF8FE796E152
S1130280215080409040E1F700C0000040E050E081
S113029060E070E88DEE94E40E9474002FEF8FE725
S11302A09DE0215080409040E1F700C0000040E014
S11302B050E060E070E086E994E40E9474008FEFFF
S11302C09FE80197F1F700C0000040E050E060E0D3
S11302D070E88DEE94E40E9474009FEF2FE78DE0A8
S11302E0915020408040E1F700C0000040E050E021
S11302F060E070E086E994E40E94740094E12EE4E6
S113030081E0915020408040E1F7000084E19CE0CE
S11303100197F1F700C0000040E050E060E070E8B1
S113032089E894E40E94740094E12EE481E0915001
S113033020408040E1F7000084E19CE00197F1F760
S113034000C0000040E050E060E070E889E894E418
S11303500E94740094E12EE481E09150204080409A
S1130360E1F7000084E19CE00197F1F700C0000090
S113037040E050E060E070E882EA94E40E94740097
S113038094E12EE481E0915020408040E1F70000A8
S113039084E19CE00197F1F700C0000040E050E0E8
S11303A060E070E882EA94E40E94740094E12EE430
S11303B081E0915020408040E1F7000084E19CE01E
S11303C00197F1F700C0000040E050E060E070E801
S11303D082EA94E40E94740094E12EE481E0915056
S11303E020408040E1F7000084E19CE00197F1F7B0
S11303F000C0000040E050E060E070E889E894E468
S11304000E94740094E12EE481E0915020408040E9
S1130410E1F7000084E19CE00197F1F700C00000DF
S113042040E050E060E070E889E894E40E947400E1
S113043094E12EE481E0915020408040E1F70000F7
S113044084E19CE00197F1F700C0000040E050E037
S113045060E070E882EA94E40E94740094E12EE47F
S113046081E0915020408040E1F7000084E19CE06D
S11304700197F1F700C0000040E050E060E070E058
S113048086E994E40E94740094E12EE481E09150A2
S113049020408040E1F7000084E19CE00197F1F7FF
S11304A000C00000C0E8D0E040E050E060E070E050
S11304B086E994E40E94740091EE2AED80E0915064
S11304C020408040E1F788EB99E00197F1F70000C4
S11304D040E050E060E070E88BEB94E40E9474002C
S11304E086E69EE00197F1F700008BED9AE0019714
S11304F0F1F700C0109285001092840080916A0088
S113050090916B00A0916C00B0916D0080938A0073
S113051090938B00A0938C00B0938D0078948EB54B
S113052089608EBD89B7806189BF80916000909198
S113053061009BBD8ABD80918400909185008115E6
S11305409540CCF3F89489B78F7E89BF1EBC219760
S113055009F0AACF40E050E060E070E0CB010E94D7
S11305607400FFCF1F920F920FB60F9211248F9237
S11305709F92AF92BF92EF92FF920F931F932F938C
S11305803F934F935F936F937F938F939F93AF9317
S1130590BF93EF93FF9380918A0090918B00A09179
S11305A08C00B0918D008093860090938700A09377
S11305B08800B093890080918400909185008034F4
S11305C0914089F48091660090916700A091680041
S11305D0B091690080938A0090938B00A0938C0063
S11305E0B0938D002FC08091840090918500803855
S11305F0924089F48091620090916300A09164001C
S1130600B091650080938A0090938B00A0938C0036
S1130610B0938D0017C08091840090918500803C38
S1130620934081F480916A0090916B00A0916C00DA
S1130630B0916D0080938A0090938B00A0938C00FE
S1130640B0938D008090860090908700A0908800E1
S1130650B0908900609182007091830080E090E006
S11306600E94F905E12CF12C05E014E4A5019401A4
S11306700E94BB009093810080938000809184004D
S11306809091850001969093850080938400409119
S113069080005091810060918A0070918B0080915C
S11306A08C0090918D000E94740080918000909144
S11306B081009093830080938200FF91EF91BF911A
S11306C0AF919F918F917F916F915F914F913F91E6
S11306D02F911F910F91FF90EF90BF90AF909F903B
S11306E08F900F900FBE0F901F90189518954F92F2
S11306F05F926F927F928F929F92AF92BF92CF92AE
S1130700DF92EF92FF92CF93DF93CDB7DEB72897B6
S11307100FB6F894DEBF0FBECDBF809160009091FC
S113072061008095909590938F0080938E006091E6
S11307307E0070917F00072E000C880B990B0E949D
S1130740FB0569837A838B839C8360917C00709121
S11307507D00072E000C880B990B0E94FB056D830E
S11307607E838F83988760917A0070917B00072E37
S1130770000C880B990B0E94FB056B017C012BED8F
S113078039E743E852E469817A818B819C810E9434
S1130790E9064B015C0128E93EE041E053E46D8148
S11307A07E818F8198850E94E9069B01AC01C50179
S11307B0B4010E94E5044B015C0122E133E848ECFA
S11307C051E4C701B6010E94E9069B01AC01C501D1
S11307D0B4010E94E5042EEC3BEF4FE75BE30E947B
S11307E0E90620E030E040E851E40E94E5042B01F2
S11307F03C01609376007093770080937800909327
S1130800790025EC30EE40EE52E469817A818B81E7
S11308109C810E94E9064B015C0129ED3EE44CEB0E
S113082052EC6D817E818F8198850E94E9069B013F
S1130830AC01C501B4010E94E5044B015C012EEA40
S113084037E442E951ECC701B6010E94E9069B0175
S1130850AC01C501B4010E94E5042EEC3BEF4FE767
S11308605BE30E94E90620E030E040E053E40E94AC
S1130870E5044B015C0160937200709373008093F4
S11308807400909375002EEA37EC47E152EC6981CD
S11308907A818B819C810E94E90669837A838B83A8
S11308A09C832EEE3CEF44E952EC6D817E818F8176
S11308B098850E94E9069B01AC0169817A818B814C
S11308C09C810E94E50469837A838B839C8325EC55
S11308D030EE40EE52E4C701B6010E94E9069B01E6
S11308E0AC0169817A818B819C810E94E5042EECA4
S11308F03BEF4FE75BE30E94E90620E030E040E095
S113090053E40E94E5046B017C0160936E007093D4
S11309106F00809370009093710029EC38EC48E4E8
S113092050E4C301B2010E94E90620E030E84BEB39
S113093054E40E94E50460936A0070936B00809312
S11309406C0090936D0029EC38EC48E450E4C50148
S1130950B4010E94E90620E030E84BEB54E40E9425
S1130960E504609366007093670080936800909339
S1130970690029EC38EC48E450E4C701B6010E9450
S1130980E90620E030E84BEB54E40E94E504609370
S113099062007093630080936400909365002896CE
S11309A00FB6F894DEBF0FBECDBFDF91CF91FF909D
S11309B0EF90DF90CF90BF90AF909F908F907F90FB
S11309C06F905F904F9008955058BB27AA270E94BC
S11309D0FC040C94AF060E94A10638F00E94A806FD
S11309E020F039F49F3F19F426F40C949E060EF47B
S11309F0E095E7FB0C948A06E92F0E94C00658F3A1
S1130A00BA17620773078407950720F079F4A6F5EF
S1130A100C94E2060EF4E0950B2EBA2FA02D0B01D8
S1130A20B90190010C01CA01A0011124FF27591B2F
S1130A3099F0593F50F4503E68F11A16F040A22F35
S1130A40232F342F4427585FF3CF469537952795A6
S1130A50A795F0405395C9F77EF41F16BA0B620BA5
S1130A60730B840BBAF09150A1F0FF0FBB1F661FEC
S1130A70771F881FC2F70EC0BA0F621F731F841F2F
S1130A8048F4879577956795B795F7959E3F08F055
S1130A90B0CF9395880F08F09927EE0F9795879517
S1130AA008950E9465050C94AF060E94A80658F0AC
S1130AB00E94A10640F029F45F3F29F00C948A06B5
S1130AC051110C94E3060C949E060E94C00668F330
S1130AD09923B1F3552391F3951B550BBB27AA27F3
S1130AE062177307840738F09F5F5F4F220F331F2D
S1130AF0441FAA1FA9F335D00E2E3AF0E0E832D0F5
S1130B0091505040E695001CCAF72BD0FE2F29D0F7
S1130B10660F771F881FBB1F261737074807AB07C9
S1130B20B0E809F0BB0B802DBF01FF2793585F4F3E
S1130B303AF09E3F510578F00C948A060C94E30633
S1130B405F3FE4F3983ED4F3869577956795B79520
S1130B50F7959F5FC9F7880F911D9695879597F92B
S1130B600895E1E0660F771F881FBB1F62177307A4
S1130B708407BA0720F0621B730B840BBA0BEE1FB9
S1130B8088F7E09508950E94CA056894B1110C9401
S1130B90E30608950E94C80688F09F5798F0B92F7D
S1130BA09927B751B0F0E1F0660F771F881F991F9E
S1130BB01AF0BA95C9F714C0B13091F00E94E20658
S1130BC0B1E008950C94E206672F782F8827B85F68
S1130BD039F0B93FCCF3869577956795B395D9F7F6
S1130BE03EF490958095709561957F4F8F4F9F4F00
S1130BF00895E89409C097FB3EF49095809570950C
S1130C0061957F4F8F4F9F4F9923A9F0F92F96E954
S1130C10BB279395F695879577956795B795F111C9
S1130C20F8CFFAF4BB0F11F460FF1BC06F5F7F4F66
S1130C308F4F9F4F16C0882311F096E911C0772378
S1130C4021F09EE8872F762F05C0662371F096E881
S1130C50862F70E060E02AF09A95660F771F881F50
S1130C60DAF7880F9695879597F908950E94A1065B
S1130C7020F019F00E94A80650F40C949E060C94DF
S1130C80E306E92F0E94C00688F35523B1F3E7FB7E
S1130C906217730784079507A8F189F3E92FFF27E3
S1130CA088232AF03197660F771F881FDAF7952F6C
S1130CB05527442332F091505040220F331F441FD4
S1130CC0D2F7BB27E91BF50B621B730B840BB1092D
S1130CD0B1F222F4620F731F841FB11D31972AF001
S1130CE0660F771F881FBB1FEFCF9150504062F0F3
S1130CF041F0882332F0660F771F881F91505040CF
S1130D00C1F793950C9490068695779567959F5FA8
S1130D10D9F7F7CF97F99F6780E870E060E008950E
S1130D209F3F31F0915020F4879577956795B7955B
S1130D30880F911D9695879597F908959FEF80ECFC
S1130D40089500240A94161617061806090608952D
S1130D5000240A9412161306140605060895092E93
S1130D600394000C11F4882352F0BB0F40F4BF2B02
S1130D7011F460FF04C06F5F7F4F8F4F9F4F089542
S1130D8057FD9058440F551F59F05F3F71F0479538
S1130D90880F97FB991F61F09F3F79F0879508951D
S1130DA0121613061406551FF2CF4695F1DF08C03C
S1130DB0161617061806991FF1CF86957105610559
S1130DC008940895E894BB2766277727CB0197F901
S1130DD008950E94FC060C94AF060E94A10638F008
S1130DE00E94A80620F0952311F00C948A060C9416
S1130DF09E0611240C94E3060E94C00670F3959F8E
S1130E00C1F3950F50E0551F629FF001729FBB27FD
S1130E10F00DB11D639FAA27F00DB11DAA1F649F99
S1130E206627B00DA11D661F829F2227B00DA11D4C
S1130E30621F739FB00DA11D621F839FA00D611DD2
S1130E40221F749F3327A00D611D231F849F600DF3
S1130E50211D822F762F6A2F11249F5750409AF01C
S1130E60F1F088234AF0EE0FFF1FBB1F661F771FA8
S1130E70881F91505040A9F79E3F510580F00C9473
S1130E808A060C94E3065F3FE4F3983ED4F3869518
S1130E9077956795B795F795E7959F5FC1F7FE2B13
S1130EA0880F911D9695879597F90895EE0FFF1F6A
S10F0EB00590F491E02D0994F894FFCF14
S1050EBC751E9D
S9030000FC
