S01A000050726F6772616D6D696E672D4144393833332E73726563FE
S11300000C942A000C943C000C943C000C943C008E
S11300100C943C000C943C000C943C000C940501A2
S11300200C943C000C943C000C943C000C943C005C
S11300300C943C000C943C000C943C000C943C004C
S11300400C943C000C943C000C943C000C943C003C
S11300500C943C0011241FBECFE5D8E0DEBFCDBF19
S113006010E0A0E6B0E001C01D92A636B107E1F7AA
S11300700E94DA000C94A0020C94000081EA87BB71
S113008081E188BB88ED8DB90895E0E4F0E0108249
S11300908FE589B988E18AB98EE880830895E8E319
S11300A0F0E09081906190838FB9EEE2F0E080817E
S11300B08823ECF70895FF920F931F93F82E08E31B
S11300C010E0F80180818E7F8083892F0E944F0089
S11300D08F2D0E944F00F8018081816080831F91E1
S11300E00F91FF900895AF92BF92CF92DF92EF925B
S11300F0FF920F931F93CF93DF93EA0120E030E048
S113010040E85DE40E943D0220E23CEB4EEB5BE400
S11301100E9453010E94BB015B016C010F2EF0E0B1
S1130120EF2EF0ECFF2EFFEF0F2FFFE01F2FF02D2F
S1130130E622F722082319230D2EDEE015950795F4
S1130140F794E794DA95D1F7D02D8FEF9FE3A822A7
S1130150B92280E091E20E945B00C50190640E9494
S11301605B00C70190640E945B0080E090EC0E94F9
S11301705B00C130D10551F0C230D10561F0CD2B07
S113018071F480E091E20E945B0009C088E291E290
S11301900E945B0004C082E091E20E945B00DF9158
S11301A0CF911F910F91FF90EF90DF90CF90BF9070
S11301B0AF9008950E9445000E943E001092650091
S11301C01092640080E090E0AAEFB4E480936000B1
S11301D090936100A0936200B093630087E08ABBB0
S11301E01BBA80E091E00E945B00EEE4F0E08081C5
S11301F08D608083E9E5F0E080818061808378947C
S11302008FE398E39BBD8ABDFFCF1F920F920FB679
S11302100F9211242F933F934F935F936F937F9388
S11302208F939F93AF93BF93EF93FF93609160007D
S113023070916100809162009091630040E050E011
S11302400E947300209164003091650021153105EE
S113025029F080E090E8ABE3B5E404C080E090E0EE
S1130260AAE7B4E48093600090936100A0936200D5
S1130270B093630081E090E0822793279093650018
S113028080936400FF91EF91BF91AF919F918F9103
S11302907F916F915F914F913F912F910F900FBE7E
S11302A00F901F9018950CD0AEC0A6D040F09DD0F2
S11302B030F021F45F3F19F08FC05111D8C092C0C3
S11302C0B3D098F39923C9F35523B1F3951B550B78
S11302D0BB27AA2762177307840738F09F5F5F4F15
S11302E0220F331F441FAA1FA9F333D00E2E3AF056
S11302F0E0E830D091505040E695001CCAF729D070
S1130300FE2F27D0660F771F881FBB1F26173707BE
S11303104807AB07B0E809F0BB0B802DBF01FF27EE
S113032093585F4F2AF09E3F510568F055C09FC017
S11303305F3FECF3983EDCF3869577956795B79528
S1130340F7959F5FC9F7880F911D9695879597F943
S11303500895E1E0660F771F881FBB1F62177307BC
S11303608407BA0720F0621B730B840BBA0BEE1FD1
S113037088F7E095089504D06894B11178C0089581
S11303805BD088F09F5790F0B92F9927B751A0F010
S1130390D1F0660F771F881F991F1AF0BA95C9F715
S11303A012C0B13081F062D0B1E008955FC0672F10
S11303B0782F8827B85F39F0B93FCCF386957795C5
S11303C06795B395D9F73EF49095809570956195AE
S11303D07F4F8F4F9F4F089597F99F6780E870E094
S11303E060E008959FEF80EC089500240A941616A7
S11303F0170618060906089500240A94121613060F
S1130400140605060895092E0394000C11F488239C
S113041052F0BB0F40F4BF2B11F460FF04C06F5FB8
S11304207F4F8F4F9F4F089557FD9058440F551F8E
S113043059F05F3F71F04795880F97FB991F61F062
S11304409F3F79F087950895121613061406551FD9
S1130450F2CF4695F1DF08C0161617061806991F45
S1130460F1CF86957105610508940895E894BB273A
S113047066277727CB0197F908950BD0C4CFB5DF52
S113048028F0BADF18F0952309F0A6CFABCF1124DA
S1130490EECFCADFA0F3959FD1F3950F50E0551F1F
S11304A0629FF001729FBB27F00DB11D639FAA27C5
S11304B0F00DB11DAA1F649F6627B00DA11D661F14
S11304C0829F2227B00DA11D621F739FB00DA11D35
S11304D0621F839FA00D611D221F749F3327A00DEF
S11304E0611D231F849F600D211D822F762F6A2F8B
S11304F011249F5750408AF0E1F088234AF0EE0F10
S1130500FF1FBB1F661F771F881F91505040A9F71C
S11305109E3F510570F060CFAACF5F3FECF3983E49
S1130520DCF3869577956795B795F795E7959F5F83
S1130530C1F7FE2B880F911D9695879597F908951D
S1070540F894FFCF59
S9030000FC
