S01D0000436F6D705F41746D6567615F556172745F746573742E73726563B0
S11300000C942A000C9434000C9434000C943400A6
S11300100C9434000C9434000C9434000C9434008C
S11300200C9434000C9434000C9434000C9434007C
S11300300C9434000C9434000C9434000C9434006C
S11300400C9434000C9434000C9434000C9434005C
S11300500C94340011241FBECFE5D8E0DEBFCDBF21
S11300600E9442000C944C000C94000010BC87E0E9
S113007089B988E18AB98EE880BD08955D9BFECF79
S11300808CB9089587E08ABB0E94360081E60E94FD
S10F00903E0080E090E00895F894FFCF5B
S9030000FC
